:100000000C9477790C94A8790C94A8790C94A8791D
:100010000C94A8790C94A8790C94A8790C94A879DC
:100020000C94A8790C94A8790C94A8790C94A879CC
:100030000C94A8790C94F9E40C94A8790C94A87900
:100040000C94A8790C9409E60C94A8790C94A879DE
:100050000C94A8790D94AD2D0D940D2E0D94984609
:100060000C94A8790D94832D0D94532D0C94A8799C
:100070000C94A8790C94A8790C94A8790C94A8797C
:100080000C94A8790C94A8790C94A8790C94A8796C
:100090000C94A8790C94A8790C94A8790C94A8795C
:1000A0000C94A8790C94A8790C94A8790C94A8794C
:1000B0000C94A8790C94A8790C94A8790C94A8793C
:1000C0000C94A8790C94A8790C94A8790C94A8792C
:1000D0000C94A8790C94A8790C94A8790C94A8791C
:1000E0000C94A87909DC21DC21DC21DC21DC21DC79
:1000F00021DC21DC21DC21DC21DC21DC21DC21DC18
:1001000021DC21DC21DC21DC21DC21DC21DC21DC07
:1001100021DCD0DBDADBBCDBB2DB64DB6EDBE1DA1B
:10012000C6DB94DB9EDBE4DBEEDBF1DACFDAF8DB77
:100130008ADB21DCA8DB80DB78DB21DC21DC21DC35
:1001400046DB50DB5ADB21DC21DC21DC21DC21DC3D
:1001500021DCD0DBDADBBCDBB2DB64DB6EDBE1DADB
:10016000C6DB94DB9EDBE4DBEEDBF1DACFDAF8DB37
:100170008ADB21DCA8DB80DB78DB21DC21DC21DCF5
:1001800046DB50DB5ADB0F014D01410117012D0108
:10019000310159013D012F01290147015D010D0187
:1001A00023013101150125012B014B0137015701B5
:1001B00043011D0151014F013301130127011B01AF
:1001C0003B0111013501510149015B011F01084A41
:1001D000D73B3BCE016E84BCBFFDC12F3D6C74315B
:1001E0009ABD56833DDA3D00C77F11BED9E4BB4CB2
:1001F0003E916BAAAABE000000803F05A84CCDB27C
:10020000D44EB93836A9020C50B9918688083CA65C
:10021000AAAA2ABE000000803F000D9441450D941B
:100220001E450D94D25F0D94A55F0D944B450D9422
:1002300014450D940D600D94B95F0D948B5F0D9472
:10024000FA5F0D94B1270D9445450D944F450D94DB
:10025000AF5F0D9433450D9453450D941A450D949D
:100260002F450D9458450D949D5F0D94DC5F0D94C2
:10027000725F0D9483270D94C35F0D9429450D94EF
:1002800075270D9410450D94815F0D94D8440D94FD
:1002900037450D94E65F0D946D5F0D9421450D94E7
:1002A000955F0D9404600D9447270D949C270D9441
:1002B000775F0D9425450D94F05F0D943D45456E97
:1002C000642066696C65206C6973740042656769B7
:1002D0006E2066696C65206C6973740053442070ED
:1002E00072696E74696E67206279746520004E6F62
:1002F00074205344207072696E74696E670057727F
:100300006974696E6720746F2066696C653A2000B5
:100310006F70656E206661696C65642C2046696C3F
:10032000653A20004372656174696F6E2066616989
:100330006C6564004469726563746F7279206372DE
:10034000656174656400616476616E6365204C204C
:100350005B303D6F66665D006578747275646572CA
:1003600020636F6F6C6572207370656564205B300D
:100370002D3235355D0064697374616E6365207478
:100380006F2072657472616374207768656E20688F
:10039000656174696E67205B6D6D5D0074656D707D
:1003A0002E20666F722072657472616374696F6E5D
:1003B000207768656E2068656174696E67205B43AD
:1003C0005D0074656D702E2073746162696C697A6A
:1003D000652074696D65205B735D005A2D6F6666DC
:1003E000736574205B73746570735D00592D6F665F
:1003F00066736574205B73746570735D00582D6F50
:100400006666736574205B73746570735D00504934
:1004100044206D61782076616C7565205B302D32EB
:1004200035355D0050494420442D6761696E0050A8
:10043000494420492D6761696E0050494420502D80
:100440006761696E2F646561642D74696D65005024
:100450004944206472697665206D696E0050494494
:10046000206472697665206D61780068656174202A
:100470006D616E61676572205B302D335D00616375
:1004800063656C65726174696F6E205B6D6D2F734F
:100490005E325D00737461727420666565647261BA
:1004A0007465205B6D6D2F735D006D61782E206625
:1004B00065656472617465205B6D6D2F735D00739B
:1004C0007465707320706572206D6D005265747272
:1004D000616374696F6E20756E646F2073706565FB
:1004E0006400457874726120657874727573696F01
:1004F0006E206F6E20756E646F207265747261631A
:1005000074205B6D6D5D0052657472616374696F18
:100510006E207A2D6C696674205B6D6D5D0052658E
:100520007472616374696F6E207370656564205BBB
:100530006D6D2F735D0052657472616374696F6EC7
:10054000206C656E677468205B6D6D5D00456E6143
:10055000626C652072657472616374696F6E20638A
:100560006F6E76657273696F6E205B302F315D0040
:1005700042656420504944206D61782076616C7535
:1005800065205B302D3235355D0042656420504971
:100590004420442D6761696E0042656420504944DF
:1005A00020492D6761696E004265642050494420EE
:1005B000502D6761696E0042656420504944206493
:1005C00072697665206D696E004265642050494409
:1005D000206472697665206D617800426564204808
:1005E000656174204D616E61676572205B302D33EB
:1005F0005D004175746F6C6576656C20616374692C
:1006000076652028312F3029005A2D70726F62656F
:100610002062656E64696E6720636F7272656374D1
:10062000696F6E2043205B6D6D5D005A2D70726F97
:1006300062652062656E64696E6720636F727265C1
:100640006374696F6E2042205B6D6D5D005A2D7082
:10065000726F62652062656E64696E6720636F7297
:1006600072656374696F6E2041205B6D6D5D005A29
:100670002D70726F6265205933205B6D6D5D005A7D
:100680002D70726F6265205833205B6D6D5D005A6E
:100690002D70726F6265205932205B6D6D5D005A5E
:1006A0002D70726F6265205832205B6D6D5D005A4F
:1006B0002D70726F6265205931205B6D6D5D005A3F
:1006C0002D70726F6265205831205B6D6D5D005A30
:1006D0002D70726F6265206F666673657420792075
:1006E0005B6D6D5D005A2D70726F6265206F66667E
:1006F0007365742078205B6D6D5D005A2D70726F8C
:10070000626520782D792D7370656564205B6D6D51
:100710002F735D005A2D70726F626520737065656E
:1007200064205B6D6D2F735D004D61782E207A2DF6
:1007300070726F6265202D20626564206469737435
:100740002E205B6D6D5D005A2D70726F62652068A2
:100750006569676874205B6D6D5D00436F617469E6
:100760006E6720746869636B6E657373205B6D6D73
:100770005D00436F72722E20646961676F6E616CF9
:100780002043205B6D6D5D00436F72722E206469A3
:1007900061676F6E616C2042205B6D6D5D00436F21
:1007A00072722E20646961676F6E616C2041205BFC
:1007B0006D6D5D0044656C74612052616469757390
:1007C00020432830293A0044656C746120526164EA
:1007D00069757320422830293A0044656C746120A1
:1007E00052616469757320412830293A00416C7068
:1007F00068612043283930293A00416C70686120D3
:100800004228333330293A00416C70686120412816
:10081000323130293A00546F776572205A20656E64
:100820006473746F70206F6666736574205B737495
:100830006570735D00546F776572205920656E6432
:1008400073746F70206F6666736574205B73746574
:1008500070735D00546F776572205820656E647305
:10086000746F70206F6666736574205B7374657057
:10087000735D004D6178207072696E7461626C65A1
:1008800020726164697573205B6D6D5D00486F72E5
:10089000697A6F6E74616C20726F64207261646932
:1008A000757320617420302C30205B6D6D5D0044C9
:1008B0006961676F6E616C20726F64206C656E6732
:1008C0007468205B6D6D5D0054726176656C2061AB
:1008D0006363656C65726174696F6E205B6D6D2F0B
:1008E000735E325D00416363656C65726174696F4C
:1008F0006E205B6D6D2F735E325D005365676D65B5
:100900006E74732F7320666F72207072696E7469D3
:100910006E67005365676D656E74732F7320666F25
:10092000722074726176656C005A206D6178206C5B
:10093000656E677468205B6D6D5D0059206D617830
:10094000206C656E677468205B6D6D5D0058206D6E
:100950006178206C656E677468205B6D6D5D005A10
:10096000206D696E20706F73205B6D6D5D00592086
:100970006D696E20706F73205B6D6D5D0058206D2A
:10098000696E20706F73205B6D6D5D004D61782E18
:10099000206A65726B205B6D6D2F735D00486F6D13
:1009A000696E67206665656472617465205B6D6D54
:1009B0002F735D004D61782E2066656564726174E9
:1009C00065205B6D6D2F735D0053746570732070CF
:1009D0006572206D6D0053746F7020737465707054
:1009E000657220616674657220696E6163746976F0
:1009F000697479205B6D732C303D6F66665D004DC8
:100A000061782E20696E6163746976652074696D02
:100A100065205B6D732C303D6F66665D00507269BA
:100A20006E74657220616374697665205B735D0026
:100A300046696C616D656E74207072696E74656470
:100A4000205B6D5D004C616E67756167650042619A
:100A500075647261746500504944204175746F7407
:100A6000756E65206661696C6564212074696D65C9
:100A70006F757400504944204175746F74756E65CC
:100A8000206661696C6564212054656D70657261D2
:100A90007475726520746F6F206869676800204BF9
:100AA000643A2000204B693A2000204B703A200025
:100AB00020436C617373696320504944002054756E
:100AC0003A2000204B753A2000206D61783A2000D2
:100AD000206D696E3A200020643A2000206269612E
:100AE000733A2000504944204175746F74756E65E7
:100AF000207374617274004E6F2063617365206CA3
:100B00006967687473004D617854656D703A00448C
:100B100069616D657465723A00416363656C657205
:100B20006174696F6E3A004D617853706565643A1F
:100B3000004A65726B3A004D617842656454656D98
:100B4000703A005072696E746572547970653A44F7
:100B5000656C7461005A54726176656C41636365BB
:100B60006C3A005954726176656C416363656C3A06
:100B7000005854726176656C416363656C3A005A43
:100B80005072696E74416363656C3A0059507269C2
:100B90006E74416363656C3A00585072696E7441BB
:100BA0006363656C3A005A53697A653A0059536930
:100BB0007A653A005853697A653A005A4D61783A35
:100BC00000594D61783A00584D61783A005A4D69A4
:100BD0006E3A00594D696E3A00584D696E3A0052AE
:100BE000657472616374696F6E556E646F5370657E
:100BF00065643A0052657472616374696F6E556E14
:100C0000646F45787472614C6F6E674C656E677483
:100C1000683A0052657472616374696F6E556E64F0
:100C20006F45787472614C656E6774683A005265FE
:100C30007472616374696F6E5A4C6966743A0052DB
:100C4000657472616374696F6E53706565643A00B0
:100C500052657472616374696F6E4C6F6E674C6538
:100C60006E6774683A0052657472616374696F6E7E
:100C70004C656E6774683A004B656570416C6976C7
:100C800065496E74657276616C3A004A65726B589C
:100C9000593A005072696E746C696E65436163689D
:100CA000653A00454550524F4D3A004175746F6C9E
:100CB0006576656C3A005A50726F62653A0043611E
:100CC00073654C69676874733A00537570706F721E
:100CD000744C6F63616C46696C616D656E746368BA
:100CE000616E67653A00537570706F72744731308A
:100CF0004731313A005A486F6D654469723A00597C
:100D0000486F6D654469723A0058486F6D65446973
:100D1000723A00536F667477617265506F776572CF
:100D20005377697463683A004C43443A0046616EF5
:100D3000323A300046616E3A005344436172643A7D
:100D4000004865617465644265643A004D6978697C
:100D50006E6745787472756465723A004E756D45BC
:100D6000787472756465723A00496E707574427574
:100D7000666665723A0042617564726174653A0034
:100D8000436F6E66696775726174696F6E20726514
:100D900073657420746F2064656661756C74732E5E
:100DA00000696E666F3A436F6E74696E7565206692
:100DB000726F6D20666174616C207374617465007C
:100DC0000054657374696E6720666174616C206598
:100DD00072726F720029203D20002C0042656E6403
:100DE000696E672061742028004A616D2064656225
:100DF000756767696E673A00436F6E6669677572FB
:100E00006174696F6E206C6F616465642066726FD7
:100E10006D20454550524F4D2E00436F6E666967F9
:100E200075726174696F6E2073746F72656420747B
:100E30006F20454550524F4D2E00536574204D692B
:100E400063726F7374657070696E6700436F6C6472
:100E500020657874727573696F6E20646973616C54
:100E60006C6F77656400436F6C642065787472758D
:100E700073696F6E20616C6C6F7765640054726982
:100E800067676572696E67207761746368646F670E
:100E90002E204966206163746976617465642C2034
:100EA000746865207072696E7465722077696C6C05
:100EB0002072657365742E005761746368646F6790
:100EC0002064697361626C6564004D3235312000C5
:100ED0006C696E656172204C3A002C2073706565F8
:100EE000643D00206C696E65617220737465707377
:100EF0003A004A65726B3A0020746F2000536574A3
:100F000020766F6C756D6574726963206578747294
:100F10007573696F6E20666F722065787472756480
:100F20006572200044697361626C656420766F6C41
:100F3000756D657472696320657874727573696F15
:100F40006E20666F72206578747275646572200019
:100F50004D31313420004649524D574152455F4E84
:100F6000414D453A52657065746965725F302E393E
:100F7000322E39204649524D574152455F55524C09
:100F80003A68747470733A2F2F6769746875622EAB
:100F9000636F6D2F72657065746965722F5265702D
:100FA00065746965722D4669726D776172652F206F
:100FB00050524F544F434F4C5F56455253494F4E3A
:100FC0003A312E30204D414348494E455F545950E7
:100FD000453A44656C746120455854525544455215
:100FE0005F434F554E543A31205245504554494580
:100FF000525F50524F544F434F4C3A330050696E3A
:101000002063616E206E6F742062652073657420AA
:101010006279204D34322C20697320696E2073650B
:101020006E7369746976652070696E732120002083
:1010300069732000496C6C6567616C205320766190
:101040006C756520666F72204D34320020746F20FD
:1010500000536574206F75747075743A2000000138
:1010600036372603023C3D380E0F2E303E12130D4C
:101070000C0A081A1C180D0E35556E6B6E6F776EC4
:1010800020636F6D6D616E643A00496E76616C69C4
:1010900064206172630047333220005A2061667415
:1010A000657220726F746174696F6E3A00206174AA
:1010B0005A3A0043757272656E745A3A0050726FF4
:1010C00062696E67206861642072657475726E650E
:1010D00064206572726F7273202D206175746F6C5D
:1010E0006576656C696E672063616E63656C6564C7
:1010F0002E00582028412920746F77657220666C75
:101100006F6F722073657420746F3A200059202825
:10111000422920746F77657220666C6F6F7220733E
:10112000657420746F3A20005A2028432920746F78
:1011300077657220666C6F6F722073657420746FB0
:101140003A2000473133342000506F7346726F6D80
:1011500053746570733A002C00436F6D7044656C76
:1011600074613A0043616C6962726174696F6E20E8
:101170006D6F76656D656E74206973206C696D693D
:1011800074656420746F2031306D6D2E0046697275
:101190007374206D6F766520746F20746F7563684B
:1011A00020617420782C793D302C3020746F2061C0
:1011B00075746F2D736574207261646975732E0088
:1011C00043616C6962726174696F6E206D6F7665E0
:1011D0006D656E74206973206C696D697465642037
:1011E000746F2031306D6D2E0043616E6E6F742010
:1011F0007365742072616469757320616E64206622
:101200006C6F6F722061742073616D652074696DFD
:10121000652E0043616C6962726174696F6E206350
:101220006F6465206973206C696D697465642074EE
:101230006F20626F74746F6D20313025206F6620CF
:101240005A206865696768740052656C61746976D4
:101250006520706F736974696F6E696E67004162B3
:10126000736F6C75746520706F736974696F6E69E4
:101270006E6700473332206C6576656C696E672057
:101280006661696C65642100473239206C6576655A
:101290006C696E67206661696C656421004732394C
:1012A000206C6576656C696E67206661696C656443
:1012B000210047323920005265736574205A206836
:1012C0006569676874005A2D70726F626520617677
:1012D0006572616765206865696768743A003232D3
:1012E0003920005A2D70726F6265206469737461D1
:1012F0006E63653A006578656375746547436F642E
:1013000065202F20717565756544656C74614D6F3E
:1013100076652072657475726E73206572726F7275
:10132000000000000000000062000000000000005B
:1013300000610000000000000000600000000000EC
:101340000000005F000000000000000089000000B5
:10135000000000000088000000000000000086007F
:101360000000000000000085003C1333132A132105
:10137000134E1345136013571303550404006913E8
:1013800054F5726B00506F6C736B69004365737436
:10139000696E61005376656E736B610053756F6D96
:1013A00069004974616C69616E6F004E65646572B5
:1013B0006C616E647365004672616E63616973008F
:1013C000506F7274756775657300457370616E6FE9
:1013D0006C004465757473636800456E676C69736F
:1013E00068000358040200711303200402007513FF
:1013F000000003B00F0000B900000003AF0F0000B1
:10140000B800000003AE0F0000B700000003AD0FEE
:101410000000B600000003AC0F0000B400000002A2
:10142000791300002100000004260440009600000B
:1014300000042204400095000000044604000091CE
:10144000000000044C040000BB000000044D040038
:1014500000BC000000042E04000090000000042ADC
:101460000400008F000000042B0400008E00000028
:10147000042C0400008D00000004290400008C00EE
:1014800000000413040000560000000416040000CD
:1014900052000000040E04000037000000040D0498
:1014A000000036000000040A04000032008013032C
:1014B000AE2600000000851303AD26000000008C5E
:1014C0001303AC2600000000941303AA26000000BA
:1014D000009C1303AF2600000000A21303A82600FF
:1014E000000000AB1303A62600000000B71303ABF7
:1014F0002600000000C01303A72600000000CA1346
:1015000003A92600000000D21303A5260000000056
:10151000DA1303A42600000000000003B204000058
:10152000D000000002E21300008700000002E9136F
:1015300000008400000004100400008B00C7190B99
:10154000140214F913F013321829182018C719B906
:10155000181D141414C71977146E1465145C1453F1
:10156000144A1441143814711768175F1756174D31
:101570001744172F1426143B17C71989148014C752
:1015800019A4149B149214C71910150715FE14F50D
:1015900014EC14E314DA14D114C814BF14B614AD47
:1015A00014C71934152B152215191502000008004F
:1015B0003D1502000004004D1502000012005515F3
:1015C0000200000300791502000004007F150200EC
:1015D000000D0087150200000500A115000002ABF8
:1015E000150000BA00000002B2150000B5000000AE
:1015F00003070400003B00000003060400003A005B
:10160000000002B91500000F00000002C015000024
:101610004E00000002C71500003900000002CE1580
:101620000000E400000002D51500008A000000035D
:10163000820400000A01000003810400003F000052
:101640000003800400003E000000037F0400003D12
:10165000000000037E0400003C00000003B404000E
:1016600000D2000000031E04000083000000031DE0
:1016700004000082000000031C0400008100000040
:10168000031B04000080000000031A0408007F0010
:10169000000004520400007E00000004B60F0000A9
:1016A0000901000004B50F00000801000004B40F98
:1016B0000000070100000000000000F20000000030
:1016C00000000000AB0000000000000000700000FF
:1016D0000000000000006F0000000354240200031B
:1016E00000000003E8030000040000000100000007
:1016F00000C900C71924161B161216091600168CED
:101700001AF715EE15E515DC15C719511648163FE1
:101710001636162D16C719901687167E1675166C76
:101720001663165A16C719AB16A2169916CF16C607
:1017300016BD16B416EA16E116D8160000042F04DA
:1017400000009B00000004260420009A0000000412
:1017500025042000990000000424042000980000C3
:1017600000042304200097000000042204200094B9
:10177000000000042D04000093000200000B00F3A1
:1017800016020000060009170200000800151702E3
:1017900000000400251703F00304002D17020000C9
:1017A00003003517C719711768175F1756174D17BC
:1017B00044173B170000027A1700000D00000002DA
:1017C000811700001100000002D11B000010000072
:1017D0000002881700007D00000002991B00000F26
:1017E00000000002921B00000E00000002A01B007F
:1017F000000B0000000000000000CF00000000000F
:10180000000000CE0000000000000000CD0000003D
:101810000000000000CC000000028F17000006014D
:10182000000002BC1B00002100000002C31B0000DE
:101830001F00000002CA1B00001D0000000344043A
:1018400000002E0000000296170000230000000395
:101850003A04000028000000046204000025000093
:10186000000461040000240000000336040000C6E8
:1018700000000003430400101C00000003310400BA
:10188000101B00000003380400001A00000003478A
:1018900004000018000000033704000017000000D7
:1018A0000388130000CB0000000448040000B100CE
:1018B0000000041F040000B000000003FD0300103E
:1018C0001300000000000000006E00000000000097
:1018D00000006D00000000000000006C000000002F
:1018E000000000006B00000000000000006A000023
:1018F0000000000000006900000000000000006817
:101900000000000000000000670000000000000070
:1019100000660000000000000000650000000000FC
:1019200000000064000000000000000063000000F0
:1019300000000000006200000000000000006100E4
:101940000000000000000060000000000000000037
:101950005F00000000000000005E000000000000CA
:1019600000005D00000000000000005C00000000BE
:10197000000000005B00000000000000005A0000B2
:1019800000000000000059000000000000000058A6
:1019900000000000000000005700000003F40301F5
:1019A000024D000000029D170200C900000003F76D
:1019B0000304004A00000003F6030204490000008B
:1019C00003F50301024800000003E80300000A00D9
:1019D00000000000000000A800000000000000005F
:1019E000A70000000000000000A6000000000000AA
:1019F0000000A5000200000800A417C719EA17BEDE
:101A000019E117D817CF17C617BD17B4170E180549
:101A100018FC17F317C719B91832182918201844D9
:101A2000181718C7195F1856184D1844183B18C7CF
:101A300019B918B018A7189E1895188C1883187A19
:101A40001871186818DD18D418CB18C2180119F8C5
:101A500018EF18E61825191C1913190A1949194005
:101A60001937192E196D1964195B195219911988B2
:101A7000197F197619C719BE19B519AC19A3199A86
:101A800019C719D919D019EB19E21900000002F48D
:101A9000190000A2002F2F20616374696F6E3A72E3
:101AA0006573756D650044656C6574696F6E20665D
:101AB00061696C65640046696C652064656C657479
:101AC0006564000200000900FB19526571756573B9
:101AD0007450617573653A00546F77657220333ABC
:101AE00000546F77657220323A00546F7765722028
:101AF000313A004C6576656C696E672063616C6392
:101B00003A0055495F414354494F4E5F5345545F36
:101B10004D454153555245445F4F524947494E2028
:101B200000454550524F4D207570646174656400E6
:101B30005072696E746572206865696768743A00EE
:101B400005881304000D1A2F2F20616374696F6ECE
:101B50003A706175736500696D706F7274616E744F
:101B60003A2046696C616D656E74206368616E67CA
:101B70006520726571756972656421004A616D2026
:101B8000636F6E74726F6C2064697361626C6564FC
:101B90003A000200000700151A0200000600231A8E
:101BA0000200000B002F1A03FC030400451A03FB7C
:101BB0000304004D1A03FA030400551A03EF03044B
:101BC000005D1A03EE030400651A03ED0304006DC3
:101BD0001A0200000600751A0100000100811A03B4
:101BE00010270200831A0310270200871A55495F45
:101BF000414354494F4E5F484F4D455F5A20005571
:101C0000495F414354494F4E5F484F4D455F59200E
:101C10000055495F414354494F4E5F484F4D455F22
:101C200058200055495F414354494F4E5F484F4D3E
:101C300045414C4C20005265717565737450617557
:101C400073653A486F6D696E67206661696C65649B
:101C50002100686F6D654178697320006973506F6A
:101C6000736974696F6E416C6C6F77656420007C7A
:101C70003C3E5E2B3D3F2F5B5D3B2C2A225C0043AC
:101C80002068697420666C6F6F720043706F7320F8
:101C90007820737175617265200043706F732078CE
:101CA000207374657073200043706F732079207304
:101CB0007175617265200043706F732079207374B1
:101CC0006570732000422068697420666C6F6F72C3
:101CD0000042706F73207820737175617265200007
:101CE00042706F73207820737465707320004270A7
:101CF0006F73207920737175617265200042706F77
:101D000073207920737465707320004120686974B2
:101D100020666C6F6F720041706F73207820737152
:101D200075617265200041706F732078207374654F
:101D30007073200041706F73207920737175617228
:101D400065200041706F7320792073746570732073
:101D500000627573793A70726F63657373696E6749
:101D600000627573793A68656174696E67006275BF
:101D700073793A70617573656420666F722075734C
:101D8000657220696E746572616374696F6E00526A
:101D90006573656E643A006F6B200020676F742076
:101DA000004572726F723A6578706563746564207D
:101DB0006C696E652000736B697020006F6B004565
:101DC00063686F3A00446F6E65207072696E746963
:101DD0006E672066696C65005344206572726F728D
:101DE000206669786564005344206572726F7220C2
:101DF000646964206E6F74207265636F766572210A
:101E00000053442052656164204572726F72005322
:101E1000442072656164206572726F720077616937
:101E20007400466F726D6174206572726F7200206B
:101E30005200204A00204900205000205300204634
:101E400000204500205A00205900205800205072E0
:101E5000696E7465722073746F7070656420616E52
:101E60006420686561746572732064697361626C73
:101E700065642064756520746F20746869732065DB
:101E800072726F722E20466978206572726F7220AE
:101E9000616E64207265737461727420776974680E
:101EA000204D3939392E00666174616C3A006D6FCE
:101EB000766552656C617469766544697374616EA8
:101EC0006365496E5374657073202F207175657555
:101ED0006544656C74614D6F7665207265747572CA
:101EE0006E73206572726F720010150715FE14F57F
:101EF00014EC14E314DA14D114C814BF14B614ADDE
:101F000014536F667477617265205265736574004F
:101F10005761746368646F6720526573657400422B
:101F2000726F776E206F757420526573657400450B
:101F3000787465726E616C20526573657400506FC1
:101F40007765725570000D0E110A0411040A111103
:101F5000001C1F11111F0000040A0A0A0E1F1F0E89
:101F6000001F1111111F0000001F1F1F1F1F000065
:101F7000040A040000000000040E150404041C0000
:101F80007777772E6D6963726F6D616B652E6F72F7
:101F90006700443100526570657469657220302EA7
:101FA00039322E3900467265652052414D3A008221
:101FB00000000C00E91E4E65656473206C616E675D
:101FC000756167652073656C656374696F6E004D3C
:101FD0003131350A4D3131390A4732380A0A005059
:101FE00072696E7465723A3A736574757020004157
:101FF00075746F726574726163743A0073746172A0
:1020000074000000420FA1071605D0030D038B02D8
:102010002E02E801B2018601630145012C0117017E
:102020000401F400000000000000000000000000B7
:102030000000000024F403D950C38EB1C2A23D9623
:10204000828B3582127AE372816CCB66A861015D66
:10205000C758EB546151204E1E4B5648C145594359
:102060001A41013F093D2F3B7139CD374036C93404
:1020700065331432D430A32F802E6B2D632C672B45
:10208000752A8E29B028DC2710274B268F25D924C6
:102090002B248223E0224322AC211A218D2004200C
:1020A000801F001F841E0C1E971D261DB81C4E1C71
:1020B000E61B821B201BC11A641A0A1AB2195D1989
:1020C0000A19B9186A181C18D11788174017FA1678
:1020D000B51673163116F115B31576153A150015A8
:1020E000C7148F1458142214EE13BA1388135613FE
:1020F0002513F612C71299126C1240121512EB1129
:10210000C1119811701148112111FB10D610B11096
:102110008D106910461024100210E10FC00FA00F9F
:10212000800F610F420F230F060FE80ECB0EAF0E8C
:10213000930E770E5C0E410E270E0D0EF30DDA0D89
:10214000C10DA80D900D780D600D490D320D1B0DC0
:10215000050DEF0CD90CC30CAE0C990C850C700C52
:102160005C0C480C350C210C0E0CFB0BE80BD60B51
:10217000C40BB20BA00B8E0B7D0B6B0B5A0B4A0BD7
:10218000390B290B180B080BF80AE90AD90ACA0AF5
:10219000BB0AAC0A9D0A8E0A800A710A630A550AB4
:1021A000470A390A2C0A1E0A110A040AF709EA0921
:1021B000DD09D009C409B709AB099F09920987094C
:1021C0007B096F09630958094C09410936092B0934
:1021D000200915090A090009F508EB08E008D608E6
:1021E000CC08C208B808AE08A4089A089008870866
:1021F0007D0874086B08610858084F0846083D08B8
:1022000034082C0823081A08120809080108F807DE
:10221000F007E807E007D807D007C807C007B807E6
:10222000B007A807A107424C4B2000496E666F3AE1
:10223000004572726F723A00494E46004E414E00A0
:1022400050726F746F636F6C2076657273696F6E16
:10225000206368616E6765642C20757067726164C5
:10226000696E67005472616E73666F726D61746936
:102270006F6E206D61747269783A00457874722EC1
:10228000002063203D20002062203D2000706C6112
:102290006E653A2061203D20004175746F6C657653
:1022A000656C696E672064697361626C6564004186
:1022B00075746F6C6576656C696E6720656E6162BA
:1022C0006C6564004175746F6C6576656C206D613A
:1022D0007472697820726573657400526F6420525D
:1022E00061646975732073657420746F3A200044CB
:1022F000697361626C696E6720616C6C20686561EE
:10230000746572732064756520746F2064657465EC
:10231000637465642073656E736F722064656665AF
:1023200063742E00206465672E204300206D656174
:10233000737572656420004572726F723A436F75EF
:102340006C64206E6F7420686F6C642074656D70AF
:10235000657261747572652000206D73002061667E
:1023600074657220004572726F723A54656D702EFA
:102370002072616973656420746F20736C6F772EAF
:102380002052697365203D20004F6E6520686561AD
:10239000746572207365656D73206465636F757015
:1023A0006C65642066726F6D20746865726D697308
:1023B000746F72202D2064697361626C696E67208E
:1023C000616C6C20666F72207361666574792100A0
:1023D000486561746572206465636F75706C6564CF
:1023E0000048656174656420626564206578636592
:1023F00065646564206D61782074656D70657261D7
:1024000074757265210020453A00205A3A00583A06
:102410000020403A002042403A002052415700201C
:10242000423A00202F00543A0053706565644D75A0
:102430006C7469706C793A00466C6F774D756C748A
:1024400069706C793A0046616E73706565643A0034
:10245000206D696E0020686F7572732000206461C2
:10246000797320005072696E74696E672074696DAB
:10247000653A006D20005072696E7465642066696B
:102480006C616D656E743A00802500004038000074
:10249000004B00008070000000960000C0DA0000D1
:1024A00000E10000002C010008B2010000C20100A0
:1024B00000F401000084030090D0030000E8030052
:1024C0000008070020A1070000100E0040420F0086
:1024D00060E316000000000055495F414354494F36
:1024E0004E5F45504F534954494F4E200055495F68
:1024F000414354494F4E5F5A504F534954494F4EF0
:102500005F46415354200055495F414354494F4E63
:102510005F59504F534954494F4E5F4641535420E1
:102520000055495F414354494F4E5F58504F5349FE
:1025300054494F4E5F46415354200055495F414333
:1025400054494F4E5F5A504F534954494F4E200003
:1025500055495F414354494F4E5F59504F53495479
:10256000494F4E200055495F414354494F4E5F58F3
:10257000504F534954494F4E200020002F00004D2A
:1025800031313720457874727564657220310020CE
:102590006465632000206465662000030004000475
:1025A00000501D7C00D009A4001009CC008008F464
:1025B0000010081C01B807440168076C0128079443
:1025C00001E806BC01B806E40188060C0260063486
:1025D0000238065C0218068402F005AC02D805D465
:1025E00002B805FC0298052403800574035005C455
:1025F000032805140400056404D804B404B0042CB2
:10260000058004A40558041C062804940600040C44
:1026100007D803AC07A8034C087803EC0848038CE0
:10262000092003A40AD0021C0BA802AC0C2802FC4F
:102630000C0802C40DB801140E9801B40E38012C18
:102640000FE000540FB8007C0F8800A40F4800F47E
:102650000F28FFFC0FC0F9000000008C030800AE3B
:10266000035000D603A000F703F00018044001381F
:102670000490015904E0017A0430029A048002BBFC
:1026800004D002FC0470032605C0038606300797B9
:1026900009A00F750D201C520E401F1F0F6022FF56
:1026A0000F803E0400081D900058091C01B007A8C7
:1026B00001C80634023006C002C0054C036805D8C4
:1026C0000318056404D004F00498047C0560040831
:1026D000063004940600042007D003AC07A8033892
:1026E000088003C408580350093003DC0908036854
:1026F0000AD802F40AB002800B88020C0C6002981F
:102700000C3002240DF801B00DC0013C0E8001C850
:102710000E3001540FB800B40F2800E00F00000481
:1027200000401D900060091C01B007A801D00634CC
:10273000023806C002C8054C036805D803180564B2
:1027400004D804F00498047C05600408063004945E
:102750000600042007D003AC07A80338088003C490
:1027600008580350093003DC090803680AE002F442
:102770000AB802800B88020C0C6002980C3002240C
:102780000DF801B00DC0013C0E8001C80E3001549F
:102790000FB800B40F2800E00F000004000016D8A6
:1027A00000C006AC0178058002C004540348042828
:1027B00004E803FC049803D0055003A4061803782A
:1027C00007D8024C08A80220097002F4093802C890
:1027D0000A08029C0BD001700C9001440D500118A6
:1027E0000EF800EC0E8800C00F00000400681D4CBD
:1027F00000500B94005809DC0050082401A8076C15
:10280000012807B401C006FC017006440228068CAA
:1028100002F005D402B8051C03880564035805AC12
:10282000033005F40310053C04E8048404C804CC18
:1028300004A804140590045C057004A4055804EC75
:10284000053804340620047C060804C406F0030C92
:1028500007D8035407C8039C07B003E40798032C68
:1028600008800374087003BC085803040948034C2B
:1028700009300394091803DC090803240AF0026CE8
:102880000AE002B40AC802FC0AB002440BA0028C9F
:102890000B8802D40B70021C0C5802640C4002AC72
:1028A0000C2802F40C10023C0DF001840DD801CC70
:1028B0000DB801140E98015C0E7001A40E4801ECD5
:1028C0000E1801340FD8007C0F8800C40F0800FCDC
:1028D0000F000000000000000000000000000000E9
:1028E00000000000000000000000000000000000E8
:1028F000000000000000000000401F450060094F7C
:102900000010095C00C0086B0070087D0020089270
:1029100000D007AC008007CC003007DE00E00623C3
:102920000190065E014006A601F005FF01A0056DBD
:10293000025005F30200059603B0045A04600440F7
:102940000510044806C0036E077003A8082003EBB7
:1029500009D002230B8002410C3002390DE0010442
:102960000E9001A20E4001170FF000690FA000A207
:102970000F5000C60F0000DD0FB0FFEB0F60FF042B
:1029800000001B54006009640010097400C0088432
:102990000070089C002008B800D007D8008007000D
:1029A0000130072C01E00668019006AC01400600EA
:1029B00002F0056802A005E002500574030005243A
:1029C00004B004F0046004DC051004E406C0030451
:1029D00008700330092003780B8002600DE001A825
:1029E0000E4001680FA000C00F0000E80F60FF0458
:1029F00000700DD8004804AC0158038002D802547E
:102A000003800228043802FC040002D005C801A497
:102A1000069801780770014C08480120091801F454
:102A200009F000C80AC8009C0BA000700C7000449C
:102A30000D3800180E0000EC0EA8FFC00FE8FE04D1
:102A400000001B54006009640010097400C0088471
:102A50000070089C002008B800D007D8008007004C
:102A60000130072C01E00668019006AC0140060029
:102A700002F0056802A005E0025005740300052479
:102A800004B004F0046004DC051004E406C0030490
:102A900008700330092003780B8002600DE001A864
:102AA0000E4001680FA000C00F0000E80F60FF0497
:102AB00000801AD8009808AC012007800250065404
:102AC00003C80528045805FC040005D005B004A47B
:102AD000066804780728044C08E8032009B003F4CA
:102AE000097003C80A38039C0BF802700CB002444A
:102AF0000D6802180E0802EC0E8801C00F8800F065
:102B00000F00000000A00F5C006009690010097947
:102B100000C0088C007008A2002008BD00D007DEAD
:102B2000008007050130073401E0066D019006B210
:102B30000140060702F0056D02A005E80250057B82
:102B40000300052B04B004F8046004EB06C0033551
:102B50000920037F0B8002650DE001B00E40011DCE
:102B60000FF000480FC8006C0FA000ED0F60FFFED3
:102B70000F48FE4550523A3320004550523A322019
:102B8000004550523A3120004550523A302000530F
:102B9000656C65637445787472756465723A003A61
:102BA000005461726765744578747200546172678D
:102BB00065744265643A00032BAF2A3F2AEF297FF0
:102BC0002900000000F728EB279B271F27A3265783
:102BD000269F251C151C141C00002243141F1F13C4
:102BE0002E5072696E7465722073657420696E74FC
:102BF0006F206472792072756E206D6F6465207528
:102C00006E74696C20726573746172742100206D3A
:102C100061726B6564206465636F75706C656400D8
:102C2000206D61726B656420646566656374003A4B
:102C300020776F726B696E67003A2074656D702043
:102C400073656E736F7220646566656374004F749C
:102C50006865723A00686561746564206265640045
:102C60000000000000000000000000FF0000010064
:102C70005A2D70726F62652073746174653A007AC0
:102C80005F6D61783A004C2000482000795F6D61EB
:102C9000783A00785F6D61783A00656E6473746F9E
:102CA0007073206869743A200044656275674C65EA
:102CB00076656C3A005072696E7465724D6F64652A
:102CC0003A434E43005072696E7465724D6F64658D
:102CD0003A4C61736572005072696E7465724D6F23
:102CE00064653A464646006572726F722077726973
:102CF00074696E6720746F2066696C650050494482
:102D0000204175746F74756E652066696E697368AD
:102D10006564202120506C61636520746865204BD8
:102D2000702C204B6920616E64204B6420636F6EB1
:102D30007374616E747320696E2074686520436FCC
:102D40006E66696775726174696F6E2E68206F7246
:102D500020454550524F4D00446F6E65207361769B
:102D6000696E672066696C652E00436F6E666967E1
:102D70003A00534420696E6974206661696C0046AC
:102D8000696C652073656C656374656400205369C4
:102D90007A653A0046696C65206F70656E65643AC5
:102DA0000066696C652E6F70656E206661696C6582
:102DB00064006D6F7665546F5265616C202F2071D1
:102DC0007565756544656C74614D6F7665207265D7
:102DD0007475726E73206572726F72005344206353
:102DE00061726420696E7365727465640053442077
:102DF000636172642072656D6F7665640000000027
:102E000000000000F10000000000000000C400000D
:102E1000000000000000F00000000000000000C3FF
:102E20000000000000000000F300000000000000AF
:102E300000F40000000000000000AF0000000000EF
:102E4000000000AC0000000000000000F3000000E3
:102E500000000000005F00000000000000005B00B8
:102E6000000000000000005700000000000000000B
:102E7000F30000000000000000EE00000000000071
:102E80000000ED0000000000000000EB00182E0F15
:102E90002E062EFD2D3C2E332E2A2E212E602E574F
:102EA0002E4E2E452E842E7B2E722E692E00000073
:102EB00004008D2E0000000400952E000000040088
:102EC0009D2E0000000400A52E57726F6E672063D0
:102ED0006865636B73756D00C22EBB2EB42EAD2E6C
:102EE000456E6453746F7020203A256470004173FE
:102EF000657461205A20706F696B6B65616D613A12
:102F00002554326D6D004173657461205920706FD6
:102F1000696B6B65616D613A2554316D6D0041736C
:102F2000657461205820706F696B6B65616D613AE3
:102F30002554306D6D0041736574612074756C6F3C
:102F40007374696D656E20706F696B6B65616D611F
:102F500074005A2D616E747572696E206B6F726B9E
:102F60006575733A257A68002544332033206B6FEA
:102F700070696F7461002544322032206B6F706974
:102F80006F7461002544312031206B6F70696F00D0
:102F9000254430204569206B6F70696F746100258E
:102FA00058352056616C6974736520707572732E84
:102FB0002036002558342056616C69747365207082
:102FC0007572732E2035002558332056616C697454
:102FD000736520707572732E203400507572736F94
:102FE00074696E203620656900507572736F74695C
:102FF0006E203520656900507572736F74696E209C
:1030000034206569004CE16D70EF2036203A25656B
:10301000352F2545350243004CE16D70EF203520FA
:103020003A2565342F2545340243004CE16D70EF9D
:103030002034203A2565332F2545330243002025CF
:1030400042436D6D00052565630200052565632F0C
:10305000254563020000256F7300255566206D200D
:1030600054756C6F73746574747500255566206DA6
:103070000025557400583A25783020593A25783182
:10308000004D756C3A20256F6D202020453A25783B
:1030900034005A3A2578322020427566203A20259D
:1030A0006F4200422565422F2545620200052565D5
:1030B000632F25456302422565422F2545620200A4
:1030C000256F73004275663A20256F42004D756C7E
:1030D0003A20256F6D25252520FD202020453A200A
:1030E0002578346D00566972746175733AFD202538
:1030F0006F662525252020205A3A257832000E209B
:103100002565622F254562B020593A257831000A9D
:10311000202565302F254530B020583A25783000DD
:103120004B69656C69004D756B6175746574747578
:103130003A2542436D6D004D756B6175746574740D
:1031400075004C69696D617075696B6B6F005669CC
:10315000687265C3A4205045542074656970706915
:103160000053696E696E656E2070617065726920CA
:10317000746569707069004B6170746F6E004275A0
:10318000696C6454616B0045692070696E6E6F7480
:10319000657474610000416C757374616E207069B0
:1031A0006E74612076616C6974747500416C75731E
:1031B00074616E2070696E6E6F74650056616C6D1F
:1031C00069696E6100507572736F7474696D656EB4
:1031D0002074756B6F73006CE16D70EF74696C61D6
:1031E000742E2E2E004F646F7474616120746176AA
:1031F0006F69746574746100707572736F7474694B
:103200006D6574004B6C696B2075757369206B7507
:10321000756D656E6E7573004F68697461204D3110
:1032200030362025466900536572766F20706169DB
:103230006B6B613A20256F53004175746F6D2E746E
:1032400061736F3A20256C6C004B6C696B206B7559
:103250006E2076616C6D69730054756C2E6C616EB6
:103260006B6120796CEF732F616C6173005079EFA3
:10327000726974E1207369697272E100566169686C
:1032800064612074756C6F737475736C616E6B61BF
:10329000005661696864612074756C6F737475732E
:1032A0006C616E6B61005A206D696B726F61736B3C
:1032B000656C6C75733A256F596D6D004C6F706558
:1032C00074612074756C6F7374757300536C6F77D1
:1032D00042616E67004A6F75746F61696B6100418E
:1032E00054582076697274616C2E206F6E2F656958
:1032F0000054756C6F737465747475004C616E6BFB
:10330000612074756C6F7374657474750054756C9A
:103310006F7374757361696B6100003A002070E12E
:103320006976E1E1200054756C6F7374696E2076E4
:10333000616C6D69732E005344206B6F72747469F5
:10334000206F6E005344206B6F7274746920706F2D
:103350006973004F646F7474616120796B732E3AE6
:10336000255855206D6D004F646F74746161206C39
:10337000E16D6D2E202558540243005461736F2077
:1033800064656C7461004C61736B65207461736F6C
:10339000740041736574612050330041736574613A
:1033A000205032004173657461205031005A206B07
:1033B000616C6962726F696E7469004173657461F2
:1033C000205A3D3000506F69737461206D697461DB
:1033D000742E004EE17974E1206D697461740050BF
:1033E0007568616C6C75736B6572726F696E3A2586
:1033F0006F66252525004E6F706575736B6572725B
:103400006F696E3A256F6D2525250020423A2565A6
:10341000622F25456202437E256F620045333A25BF
:1034200065322F25453202437E256F320045323A00
:103430002565312F25453102437E256F3100453109
:103440003A2565302F25453002437E256F30002018
:10345000453A2565632F25456302437E256F43006A
:103460005075736B7572693A256F42004C616461E7
:103470007461616E2E2E2E004C616461747475202F
:10348000454550524F4D004B6F6B6F6F6E70616EC4
:103490006F0054616C6C656E6E6574747520454583
:1034A00050524F4D004B6F6B6F6F6E70616E6F00BF
:1034B0004D6F6F74746F726920706F6973206BE168
:1034C00079742E00506F69737465747475004B7550
:1034D000756D656E74616120416C75737461610016
:1034E0004B75756D656E74616120507572736F7484
:1034F0002E00546F696D696E74613A256C610050DD
:1035000049440042616E6742616E6700592D7461E3
:10351000736F697475733A25587900582D74617307
:103520006F697475733A25587800504944204D618D
:10353000783A25584400416A6F204D61783A255801
:103540004D00416A6F204D696E3A25586D00504913
:103550004420443A2558640050494420493A2558AB
:10356000690056616C766F6E74612050574D3A2534
:10357000584D004B756F6C6C75742061696B613AC6
:103580002558700050494420503A25587000486131
:103590006C6C696E74613A255868004574656E6597
:1035A0006D696E656E20717561643A2558610045DC
:1035B00074656E656D696E656E206C696E3A25582E
:1035C0006C00537461622E41696B613A2558770033
:1035D0004B69696864797479733A255841004D6183
:1035E0006B732E2046523A255846004BE1796E6E99
:1035F000697374E146523A2558660041736B656CF5
:1036000074612F4D4D3A2553650053696972746F8B
:103610006E6F706575733A256F6300596C656973D9
:103620006574005B6D696E5D20303D73616D6D7515
:10363000746100546F696D65746F6E206AE16C6B24
:1036400065656E3A20256970004D616B732E20749C
:103650006F696D65746F6E005B6D696E5D20303DE6
:1036600073616D6D75746100546F696D65746F6E13
:10367000206AE16C6B65656E3A20256973004D6FB9
:103680006F74746F726920746F696D65746F6E000A
:103690004173657461206E6F702E206D616B732EA7
:1036A000004173657461206E6F702E2037352525BB
:1036B00025004173657461206E6F702E20353025B2
:1036C0002525004173657461206E6F702E203235A0
:1036D0002525250053616D6D757461207475756CB9
:1036E0006574696E005475756C6574696E206E6FD3
:1036F000706575733A254673252525005475756CDC
:10370000657474696D656E206E6F70657573004DBC
:10371000696E3A25737A204D61783A25735A005ABA
:103720003A257832206D6D004D696E3A2573792007
:103730004D61783A25735900593A257831206D6DDD
:10374000004D696E3A257378204D61783A2573589B
:1037500000583A257830206D6D004D696E3A25731A
:103760007A204D61783A25735A005A3A25783220EA
:103770006D6D004D696E3A257379204D61783A255B
:10378000735900593A257831206D6D004D696E3AB4
:10379000257378204D61783A25735800583A25787A
:1037A00030206D6D0031206B6C696B6B617573201F
:1037B0003D2031206D6D00453A257833206D6D0038
:1037C000004D616B732072616A6F697474696D6515
:1037D0007374613A25735A004D696E2E2072616AC6
:1037E0006F697474696D657374613A25737A005AF0
:1037F0003A257832206D6D00004D616B7320726147
:103800006A6F697474696D657374613A25735900E0
:103810004D696E2E2072616A6F697474696D65738B
:1038200074613A25737900593A257831206D6D001D
:10383000004D616B732072616A6F697474696D65A4
:103840007374613A257358004D696E2E2072616A57
:103850006F697474696D657374613A257378005883
:103860003A257830206D6D00004D616B73207261D8
:103870006A6F697474696D657374613A25735A006F
:103880004D696E2E2072616A6F697474696D65731B
:1038900074613A25737A005A3A257832206D6D208A
:1038A00025647A25645A00004D616B732072616A49
:1038B0006F697474696D657374613A257359004D4D
:1038C000696E2E2072616A6F697474696D657374B4
:1038D000613A25737900593A257831206D6D20259C
:1038E000647925645900004D616B732072616A6FC1
:1038F000697474696D657374613A257358004D6914
:103900006E2E2072616A6F697474696D657374617B
:103910003A25737800583A257830206D6D2025645B
:1039200078256458004B6F74693A25665A004B6FCE
:103930007469205A3A25665A004B6F746920593AC7
:10394000256659004B6F746920583A256658004D1A
:10395000616B732E3A25667A004D616B732E205A87
:103960003A25667A004D616B732E20593A256679A7
:10397000004D616B732E20583A256678005379EF1D
:103980007474EF6E6F7065757300506F6973746156
:1039900020746965646F73746F004B6F727474691F
:1039A000206173657465747475004B6F727474690B
:1039B00020706F69737465747475004A61746B610B
:1039C0002074756C6F7374757374610054756C6FCB
:1039D000737475737461756B6F0054756C6F737469
:1039E0006120546965646F73746F0056756F646FFE
:1039F0006E20706F6973746F005369697272E16A47
:103A0000E16C6B65656E3A254F61004D696E2E6401
:103A100069737420203A254F64004261636B736CB4
:103A20002E2020203A254F62005065727575746112
:103A30002020203A254F7200254F32204F5053202E
:103A40006E6F70656100254F31204F5053206E6FAF
:103A5000726D61616C6900254F30204F50532065B5
:103A600069004B756976612D616A6F3A256464005F
:103A70005669726865657420203A2564650054694A
:103A800065646F742020203A25646900546F69735F
:103A900074612020203A25646F004C6174616120BC
:103AA000202020454550524F4D0054616C6C656E8E
:103AB0006E6120454550524F4D004B6969687479DD
:103AC00076797973005A2D41736B656C203A2561C4
:103AD0004A0041736B656C2020203A25616A0053CF
:103AE00069697272E13A25615A005369697272E13B
:103AF0005A203A25615A005369697272E159203A95
:103B0000256159005369697272E158203A2561585C
:103B10000054756C6F7374613A25617A0054756C4A
:103B20006F737461205A3A25617A0054756C6F7313
:103B3000746120593A2561790054756C6F73746112
:103B400020583A256178004173657461206CE16802
:103B500074EF7069737465002558322056616C6982
:103B600074736520707572732E330025583120569A
:103B7000616C6974736520707572732E32002558FC
:103B8000302056616C6974736520707572732E31C4
:103B900000507572736F74696E2033204569005050
:103BA0007572736F74696E203220456900507572AA
:103BB000736F74696E203120456900507572736FA0
:103BC0002033203A2565322F2545320243005075B7
:103BD00072736F2032203A2565312F25453102431B
:103BE00000507572736F2031203A2565302F2545BE
:103BF00030024300416C757374616E203A25656232
:103C00002F254562024300507572736F742E207029
:103C100061696B6B61005A205061696B6B61206E4A
:103C20006F706561005A205061696B6B61005920AB
:103C30005061696B6B61206E6F7065610059205037
:103C400061696B6B610058205061696B6B61206E1C
:103C50006F7065610058205061696B6B6100536142
:103C60006D6D757461206D6F6F74746F7269004152
:103C700073657461206CE16874EF7069737465003A
:103C80004AE1E16864797479730056616C6F743A43
:103C9000256C6F004573696CC3A46D6D697479738D
:103CA00020414253004573696CC3A46D6D697479FA
:103CB0007320504C41004B6F7469205A004B6F7455
:103CC000692059004B6F74692058004B6F7469204C
:103CD0006B61696B6B69004B6F74692064656C7410
:103CE00061005669726865656E657473696E74E12A
:103CF000005344206B6F7274746900507572736F57
:103D000074696E005061696B6B61004B6F6B6F6F14
:103D10006E70616E6F00256F650050696B612D617B
:103D2000736574756B7365740054616B6169736955
:103D30006E01002A2A2A2A205649524845202A2A5A
:103D40002A2A004569205344206B6F72747469619C
:103D50000056616C6D69730054756C6F737461000B
:103D600054756C6F737461612E2E2E004569004B83
:103D7000796C6CE1004E2F410053616D6D7574617B
:103D80000050E1E16C6C6500456E6453746F702007
:103D90003A25647000536574205A206F6666736517
:103DA000743A2554326D6D005365742059206F6646
:103DB000667365743A2554316D6D005365742058EF
:103DC000206F66667365743A2554306D6D005365D7
:103DD00074207072696E74206F6666736574730008
:103DE0005A2D70726F622079756B73656B6C6967A1
:103DF000693A257A68002544332033206B6F707947
:103E000061002544322032206B6F707961002544B7
:103E1000312031206B6F70796100254430204B6F69
:103E20007079616C616D6100255835204578742E7C
:103E30002036E28099796920736563200025583423
:103E4000204578742E2035E28099692073656320BF
:103E500000255833204578742E2034E2809975204F
:103E60007365632000204578742E2036E2809979AE
:103E700069206B617061742000204578742E2035B4
:103E8000E2809969206B6170617420004578742E1E
:103E90002034E2809975206B61706174005369630E
:103EA0002E2036203A202545350243005369632EE3
:103EB0002035203A202545340243005369632E20E3
:103EC00034203A2025453302430020256F436D6D91
:103ED00000052565630200052565632F25456302FE
:103EE0000000256F7300255566206D2079617A6981
:103EF0006C646900255566206D0025557400583A9C
:103F000025783020593A257831004D756C3A2025B6
:103F10006F6D202020453A257834005A3A257832B2
:103F20002020427566203A20256F420042256542D6
:103F30002F2545620200052565632F254563024252
:103F40002565422F2545620200256F730042756684
:103F50003A20256F42004D756C3A20256F6D25255E
:103F60002520FD202020453A202578346D00507210
:103F70007A65703AFD20256F6625252520205A3A5E
:103F8000257832000E202565622F254562B0205924
:103F90003A257831000A202565302F254530B0209C
:103FA000583A2578300044696C004469676572208E
:103FB0003A20256F436D6D00446967657200596151
:103FC0007069736B616E00596573696C205045545C
:103FD0002054617065004D61766920426F796120DF
:103FE0004B6167696469004B6170746F6E00427564
:103FF000696C6454616B004B61706C616D61205938
:104000006F6B00004B61706C616D61204B616C697E
:104010006E6C696769005461626C612075737475B8
:10402000206B61706C616D610042656B6C656D65E4
:10403000204D6F64750045787472756465722074E4
:10404000616B696C6469006963696E2062656B6CA1
:104050006579696E004973746E696C656E20736969
:1040600063616B6C696B6C617200697369746D611B
:104070006B206963696E2074696B6C6179696E008D
:1040800045787472756465726C6172692074656BD1
:10409000726172004D31303659692061746C612053
:1040A00025466900536572766F20706F732E3A2033
:1040B000256F53004F746F207365766979653A20D8
:1040C000256C6C0054616D616D6C616E646967692B
:1040D0006E6461206275746F6E6120626173696ED7
:1040E00000616C6D616B206963696E206365766940
:1040F00072696E0046696C616D6574692079756BD3
:104100006172692061736167690046696C616D6500
:104110006E742064656769737469720046696C61C6
:104120006D656E74206465676973746972005A20E6
:1041300042616279737465702E3A256F596D6D0016
:1041400059617A6469726D61796920647572647508
:104150007200536C6F7742616E6700426F737461D7
:10416000205A616D616E0041545820677563752057
:104170006F6E2F6F66660079617A696C64690046BC
:10418000696C616D656E742068617263616E6469EB
:104190000059617A6469726D61205A616D616E695E
:1041A00000003A002067756E200059617A696369E2
:1041B0002048617A6972005344204361726420543C
:1041C000616B696C646900534420436172642043ED
:1041D000696B6172696C64690042656B6C653A2059
:1041E000255855206D6D0042656B6C6520536963E1
:1041F0002E2025585402430044656C74617969206F
:104200007365766979656C6500536576696579696A
:104210002048657361706C610053657420503300F1
:1042200053657420503200536574205031005A2079
:104230004B616C69622E005A3D30276120617961C3
:10424000726C61004F6C63756D752053696669729D
:104250006C61004F6C63756D7520476F7374657288
:1042600000416B697320436172702E203A256F669E
:104270002525250048697A20436172702E3A256F02
:104280006D2525250020423A2565622F25456202CD
:10429000437E256F620045333A2565322F2545322E
:1042A00002437E256F320045323A2565312F254580
:1042B0003102437E256F310045313A2565302F2587
:1042C000453002437E256F300020453A2565632F37
:1042D00025456302437E256F43004F6E62656C6C1B
:1042E000656B3A256F420059756B6C75796F722E4C
:1042F0002E2E00454550524F4D2764616E2063615C
:104300006772696C6469004B6F6E6669677572618C
:1043100073796F6E00454550524F4D2761206B6198
:1043200079646564696C6469004B6F6E6669677572
:10433000726173796F6E004D6F746F726C61722071
:104340004B6170616C69004455524455004265648C
:10435000204973696E69796F72004578747275646B
:104360006572204973696E69796F720045796C6571
:104370006D3A256C61005049440042616E674261AC
:104380006E6700592D4F667365743A255879005849
:104390002D4F667365743A25587800504944204D76
:1043A00061783A25584400537572756375204D61E4
:1043B000783A25584D00537572756375204D696EB6
:1043C0003A25586D0050494420443A25586400501D
:1043D000494420493A255869004B6F6E74726F6CDE
:1043E0002050574D3A25584D00426F73205A616D49
:1043F0006E3A2558700050494420503A25587000B4
:104400004B6F6E74726F6C3A2558680047656C6923
:10441000736D697320717561643A25586100476551
:104420006C69736D6973206C696E3A25586C005322
:104430007461622E54696D653A2558770049766D2E
:10444000653A255841004D61782046523A25584634
:10445000004261736C616E6769632046523A255869
:1044600066004164696D2F4D4D3A255365004261E8
:104470007564726174653A256F630047656E656C9B
:10448000005B6D696E5D20303D4B6170616C690051
:104490004B6170616D61207375722E3A20256970D1
:1044A000004D61782E20426F737461005B6D696E00
:1044B0005D20303D4F6666004D6F746F72204B611A
:1044C00070613A20256973004D6F746F726C617270
:1044D00020426F7374610046616E2054616D20410B
:1044E00063696B0046616E276920417961726C6176
:1044F0002037352525250046616E276920417961E1
:10450000726C612035302525250046616E276920B3
:10451000417961726C612032352525250046616E36
:104520002769204B617061740046616E2048697A8A
:10453000693A2546732525250046616E2048697A2B
:1045400069004D696E3A25737A204D61783A25737A
:104550005A005A3A257832206D6D004D696E3A2521
:104560007379204D61783A25735900593A2578318D
:10457000206D6D004D696E3A257378204D61783A53
:1045800025735800583A257830206D6D004D696EBE
:104590003A25737A204D61783A25735A005A3A25A4
:1045A0007832206D6D004D696E3A257379204D612A
:1045B000783A25735900593A257831206D6D004DB0
:1045C000696E3A257378204D61783A257358005802
:1045D0003A257830206D6D00312074696B203D20C4
:1045E00031206D6D00453A257833206D6D00004D0A
:1045F000617820656E6473746F703A25735A004D4C
:10460000696E20656E6473746F703A25737A005A10
:104610003A257832206D6D00004D617820656E641A
:1046200073746F703A257359004D696E20656E641E
:1046300073746F703A25737900593A257831206D7B
:104640006D00004D617820656E6473746F703A255B
:104650007358004D696E20656E6473746F703A25EF
:10466000737800583A257830206D6D00004D6178E0
:1046700020656E6473746F703A25735A004D696ECD
:1046800020656E6473746F703A25737A005A3A2508
:104690007832206D6D2025647A25645A00004D61C2
:1046A0007820656E6473746F703A257359004D6994
:1046B0006E20656E6473746F703A25737900593A91
:1046C000257831206D6D2025647925645900004DD1
:1046D000617820656E6473746F703A257358004D6D
:1046E000696E20656E6473746F703A257378005834
:1046F0003A257830206D6D20256478256458004473
:10470000656C7461205369662E476F6E2E48697A16
:104710003A25665A005A2769205369662E476F6EFC
:104720002E48697A3A25665A0059277969205369D3
:10473000662E476F6E2E48697A2E3A2566590058C4
:104740002769205369662E476F6E2E48697A2E3A84
:10475000256658004D61783A25667A004D617820CB
:104760005A3A25667A004D617820593A25667900D3
:104770004D617820583A25667800496C65726C6501
:104780006D6500446F73796179692053696C004BE2
:1047900061727469204261676C61004B6172746977
:1047A0002043696B6172004261736B6979612044D7
:1047B0006576616D004261736B6979692044757239
:1047C000616B6C617400446F7379612059617A6424
:1047D000697200416E7469204F6F7A65004D6F7683
:1047E000652061667465723A254F61004D696E2ED1
:1047F000204D65736166653A254F6400456B7365AE
:104800006E20426F736C2E3A254F620047657269C5
:104810002043656B6C2E3A254F7200254F32204F96
:1048200050532048697A6C6900254F31204F50530E
:10483000204B6C6173696B00254F30204F50532023
:104840004B6170616C6900426F7374612043616CED
:1048500069733A25646400486174616C6172203A3E
:104860002564650042696C67692020203A256469E7
:10487000004563686F202020203A25646F0045457D
:1048800050524F4D2764616E206361676972004525
:104890004550524F4D2761206B6179646574004922
:1048A000766D65005A2D4A65726B203A25614A0083
:1048B000582D59204A65726B203A25616A0048617B
:1048C00072656B6574203A25615A00486172656BA8
:1048D0006574205A203A25615A00486172656B65FB
:1048E000742059203A25615900486172656B6574DE
:1048F0002058203A2561580059617A6D6120482E70
:104900003A25617A0059617A6D6120482E205A3A21
:1049100025617A0059617A6D6120482E20593A2527
:1049200061790059617A6D6120482E20583A2561DD
:1049300078004F726967696E206920417961726CF5
:10494000610025583220457874722E203327752057
:104950005365630025583120457874722E20322724
:104960007969205365630025583020457874722E8C
:10497000203127692053656300457874722E2033F7
:104980002769204B61706100457874722E203227B0
:1049900069204B61706100457874722E203127695F
:1049A000204B617061005369632E2033203A20252B
:1049B00045320243005369632E2032203A202545B8
:1049C000310243005369632E2031203A20254530BF
:1049D0000243005461626C61205369633A202545AB
:1049E00062024300486172656B657469005A204831
:1049F000697A6C6920486172656B657469005A2038
:104A0000486172656B65746900592048697A6C6900
:104A100020486172656B6574690059204861726550
:104A20006B65746900582048697A6C692048617226
:104A3000656B657469005820486172656B657469BF
:104A4000004D6F746F7275204B61706174004F720E
:104A5000696A696E6520617961726C6100536F6784
:104A6000756D61004973696B6C6172203A256C6FDA
:104A700000414253204F6E20497369746D610050AC
:104A80004C41204F6E20497369746D61005A205368
:104A90002E476F6E646572005920532E476F6E6407
:104AA0006572005820532E476F6E6465720048652A
:104AB0007073696E6920532E476F6E64657200448F
:104AC000656C7461796920536966722E20476F6E38
:104AD000642E00446562756767696E670053442001
:104AE0004B617274004578747275646572004B6F27
:104AF0006E756D2D486172656B65740059617069E2
:104B00006C616E6469726D6100256F650048697A39
:104B10006C69204179617200476572692001002A41
:104B20002A2A2A2048415441202A2A2A2A0053446A
:104B3000204B61727420596F6B00426F7374610077
:104B400059617A69796F720059617A69796F722E49
:104B50002E2E0048617969720045766574004E2FEB
:104B600041004B6170616C69004163696B00456E87
:104B70006453746F7020202020203A202564700038
:104B800050727A6573756E2077205A203A25543218
:104B90006D6D0050727A6573756E20772059203ADA
:104BA000202554316D6D0050727A6573756E2077D3
:104BB0002058203A202554306D6D00506F6C6F7A6C
:104BC000656E69652077796472756B7500577973C6
:104BD0002E20536F6E6479205A3A257A6800254456
:104BE000332033204B6F706965002544322032201A
:104BF0004B6F706965002544312031204B6F70691F
:104C00006100254430204E6965206B6F7069756ABC
:104C100000255835205779626965727A2045787485
:104C2000722E203600255834205779626965727AD1
:104C300020457874722E203500255833205779622C
:104C40006965727A20457874722E20340057796C29
:104C50002E20457874727564657220360057796C21
:104C60002E20457874727564657220350057796C12
:104C70002E20457874727564657220340054656D19
:104C8000702E4578363A2565352F25453502430087
:104C900054656D702E4578353A2565342F25453499
:104CA00002430054656D702E4578343A2565332FE4
:104CB000254533024300202542436D6D00052565DF
:104CC000630200052565632F254563020000256FFB
:104CD0007300255566206D206472756B6F77616E69
:104CE0006500255566206D0025557400583A2578D5
:104CF0003020593A257831004D756C3A20256F6D7A
:104D0000202020453A257834005A3A257832202050
:104D1000427566203A20256F4200422565422F25C4
:104D200045620200052565632F254563024225651E
:104D3000422F2545620200256F73004275663A20B6
:104D4000256F42004D756C3A20256F6D2525252075
:104D5000FD202020453A202578346D0050727A6578
:104D6000703AFD20256F6625252520205A3A2578A2
:104D700032000E202565622F254562B020593A2564
:104D80007831000A202565302F254530B020583A6B
:104D9000257830004A657A796B00496E6E6120672C
:104DA0007275626F73633A2542436D6D00496E6E92
:104DB00061004B6C656A207720737A747966636949
:104DC00065005A69656C6F6E61207461736D612056
:104DD000504554004E6965622E207461736D6120E8
:104DE0006D61736B2E004B6170746F6E004275695C
:104DF0006C6454616B00437A797374792073746FB7
:104E00006C0073746F6C753A005779626965727AD9
:104E1000206D6174657269616C00506F6B727963AB
:104E200069652073746F6C75005374616E64627988
:104E300000456B73747275646572207A61626C6F81
:104E40006B6F77616E790074656D706572617475F2
:104E50007279202E2E2E00506F637A656B616A2066
:104E60006E61207A6164616E6500726F7A67727A32
:104E7000616320656B7374727564657279004B6C45
:104E8000696B6E696A20616279207A6EC3B37700BC
:104E900049676E6F72756A206B6F6D2E204D3130D1
:104EA000362025466900506F7A79636A6120536520
:104EB0007277613A20256F53004175746F706F7A75
:104EC000696F6D6F772E3A20256C6C004B6C696BA7
:104ED0006E696A206A616B20676F746F7765006620
:104EE000696C616D656E74207720676F72652F64E1
:104EF0006F6C004B726563206162792070727A6515
:104F00007375776163005A6D69656E2066696C61BF
:104F10006D656E74005A6D69616E612066696C61C1
:104F20006D656E747500446F726567756C756A2087
:104F30005A3A256F596D6D0050727A657277696AB9
:104F40002077796472756B00536C6F7742616E677E
:104F500000446561642054696D6500576C2F577972
:104F60006C207A6173696C616E6965006472756B3F
:104F70006F77616E65005A757A79746F2066696C17
:104F8000616D656E747500437A6173207072616340
:104F9000790020682E003A0020646E692C200044BD
:104FA00072756B61726B6120676F746F7761004B14
:104FB0006172746120534420776C6F7A6F6E610068
:104FC0004B617274612053442077796A6574610083
:104FD000577973757720726F7A67727A65773A2599
:104FE00058556D6D004D696E54656D7020777973FD
:104FF0007577753A255854024300506F7A696F6D82
:105000002064656C7479004F626C69637A20706FFC
:105010007A696F6D6F77616E69610055737461773E
:1050200020503300557374617720503200557374EB
:105030006177205031005A206B616C69622E0055F7
:1050400073746177205A3D30005A6572756A20701A
:105050006F6D69617200506F6B617A20706F6D695E
:1050600061720050727A65706C79772066696C6144
:105070006D2E3A256F6625252500537A79626B6F70
:105080007363206472756B75203A256F6D25252535
:105090000020423A2565622F25456202437E256F36
:1050A000620045333A2565322F25453202437E257D
:1050B0006F320045323A2565312F25453102437E56
:1050C000256F310045313A2565302F2545300243A3
:1050D0007E256F300020453A2565632F2545630204
:1050E000437E256F43004275666F723A256F42001A
:1050F0004C61646F77616E69652E2E2E006F64635C
:105100007A7974616E61207A20454550524F4D0086
:105110004B6F6E666967757261636A61007A617070
:105120006973616E6120646F20454550524F4D0098
:105130004B6F6E666967757261636A610053696C73
:105140006E696B692077796C61637A6F6E65005A5E
:105150006174727A796D616E790047727A616E69F5
:10516000652073746F6C750047727A616E69652093
:10517000676C6F7769637900416B636A613A256C8C
:105180006100504944004477757374616E6F77799C
:10519000004F66736574205920203A255879004FD6
:1051A00066736574205820203A255878004D617840
:1051B00020737465722E3A20255844004D61782082
:1051C00049207761723A2025584D004D696E20497B
:1051D000207761723A2025586D00504944204420C0
:1051E0002020203A2558640050494420492020209E
:1051F000203A255869004D61782E2050574D203AAD
:10520000255844004465616474696D65203A2558E9
:1052100070005049442050202020203A255870002A
:10522000526567756C61746F723A25586800416405
:1052300076616E63652071756164203A255861005E
:10524000416476616E6365206C696E20203A255852
:105250006C00437A61732073746162696C2E203A2A
:10526000255877730050727A7973706965737A2E56
:1052700020203A255841004D617820537A79626B9D
:105280006F7363203A25584600506F637A61746BE0
:105290006F776120535A3A255866004B726F6B69DD
:1052A0002F6D6D203A2025536500537A79626B6F1C
:1052B0007363205553423A256F63005573746177C9
:1052C00069656E696120676C6F776E6500303D4E71
:1052D00069652077796C61637A616A0057796C61DE
:1052E000637A20706F3A20256970206D696E2E00F8
:1052F00057796C61637A207A6173696C2E20706FC4
:1053000000303D4E69652077796C61637A616A008F
:1053100057796C61637A20706F3A20256973206D2C
:10532000696E2E0057796C61637A2073696C6E69BF
:105330006B6920706F005573746177206E61203146
:105340003030252525005573746177206E61203734
:1053500035252525005573746177206E6120353021
:10536000252525005573746177206E61203235251F
:1053700025250057796C61637A20776961747261C1
:105380006B004F62726F7479207769617472616B20
:10539000613A254673252525004F62726F74792086
:1053A0007769617472616B61004D696E3A25737A39
:1053B000204D61783A25735A005A3A257832206D8B
:1053C0006D004D696E3A257379204D61783A2573E9
:1053D0005900593A257831206D6D004D696E3A2596
:1053E0007378204D61783A25735800583A25783003
:1053F000206D6D004D696E3A25737A204D61783AC3
:1054000025735A005A3A257832206D6D004D696E29
:105410003A257379204D61783A25735900593A2518
:105420007831206D6D004D696E3A257378204D619D
:10543000783A25735800583A257830206D6D004A27
:1054400065646E6F73746B612031206D6D00453A39
:10545000257833206D6D00004B72616E636F776B42
:1054600061204D41583A2025735A004B72616E639A
:105470006F776B61204D494E3A2025737A005A3A76
:10548000257832206D6D00004B72616E636F776B13
:1054900061204D41583A20257359004B72616E636B
:1054A0006F776B61204D494E3A2025737900593A48
:1054B000257831206D6D00004B72616E636F776BE4
:1054C00061204D41583A20257358004B72616E633C
:1054D0006F776B61204D494E3A2025737800583A1A
:1054E000257830206D6D00004B72616E636F776BB5
:1054F00061204D61783A2025735A004B72616E63CA
:105500006F776B61204D494E3A2025737A005A3AE5
:10551000257832206D6D2025647A25645A00004B71
:1055200072616E636F776B61204D61783A202573ED
:1055300059004B72616E636F776B61204D494E3A33
:105540002025737900593A257831206D6D20256426
:105550007925645900004B72616E636F776B61202F
:105560004D41583A20257358004B72616E636F7736
:105570006B61204D494E3A2025737800583A2578C2
:1055800030206D6D2025647825645800506F777247
:105590006F743A25665A00506F77726F74205A3ACA
:1055A00025665A00506F77726F7420593A256659F4
:1055B00000506F77726F7420583A256658004D611D
:1055C000783A25667A004D6178205A3A25667A0045
:1055D0004D617820593A256679004D617820583A16
:1055E00025667800537A79626B6F73630055737523
:1055F0006E20706C696B005A616D6F6E74756A20F5
:105600006B61727465004F646D6F6E74756A206BA8
:105610006172746500577A6E6F77206472756B6F74
:10562000772E00577374727A796D616A206472758F
:105630006B004472756B756A207A20706C696B75AB
:1056400000416E7469204F6F7A650050727A6573FD
:10565000756E20706F3A254F61004D696E2E64693A
:1056600073743A254F64004261636B736C2E203A69
:10567000254F620052657472616374203A254F723F
:1056800000254F32204F5053204661737400254F40
:1056900031204F505320436C617373696300254F71
:1056A00030204F5053204F66660042657A2077794C
:1056B0006472756B75203A2025646400426C6564E1
:1056C00079202020202020203A2025646500496E82
:1056D000666F726D61636A6520203A2025646900F7
:1056E0004563686F20202020202020203A20256458
:1056F0006F004F64637A7974207A20454550524F89
:105700004D005A617069737A20646F20454550528C
:105710004F4D0050727A7973706965737A656E695E
:1057200065005A2D4A65726B3A25614A004A6572D6
:105730006B3A25616A0050727A65737577616E699C
:1057400061203A25615A0050727A657375772E2070
:105750005A20203A25615A0050727A657375772E67
:10576000205920203A2561590050727A6573757767
:105770002E205820203A256158004472756B6F77AF
:10578000616E696120203A25617A004472756B6F01
:10579000772E205A2020203A25617A004472756BBA
:1057A0006F772E20592020203A25617900447275A8
:1057B0006B6F772E20582020203A25617800557392
:1057C000746177206A616B6F207A65726F0025586B
:1057D00031205779626965727A20457874722E207B
:1057E0003300255831205779626965727A204578EF
:1057F00074722E2032002558302057796269657204
:105800007A20457874722E20310057796C2E20450D
:105810007874727564657220330057796C2E204558
:105820007874727564657220320057796C2E204549
:105830007874727564657220310054656D702E4500
:1058400078333A2565322F25453202430054656D81
:10585000702E4578323A2565312F254531024300B7
:1058600054656D702E4578313A2565302F254530C9
:1058700002430054656D702E53746F6C753A256544
:10588000622F254562024300506F7A79636A612076
:1058900045787472756465726100506F7A79636AD5
:1058A00061205A20537A79626B6F00506F7A796366
:1058B0006A61205A00506F7A79636A6120592053D7
:1058C0007A79626B6F00506F7A79636A6120590050
:1058D000506F7A79636A61205820537A79626B6FCE
:1058E00000506F7A79636A6120580057796C616360
:1058F0007A2073696C6E696B6900557374617720E7
:105900006A616B6F207A65726F0043686C6F647AAE
:10591000656E6965004F73776965746C656E69655E
:10592000203A256C6F00526F7A67727A656A20415F
:10593000425300526F7A67727A656A20504C410078
:105940005A6572756A205A005A6572756A20590044
:105950005A6572756A2058005A6572756A207773A5
:105960007A7973746B6965206F73696500486F6D30
:10597000652064656C746100546573746F77616E43
:105980006965004B6172746120534400456B737408
:10599000727564657200506F7A79636A61004B6F4B
:1059A0006E666967757261636A6100256F65005391
:1059B0007A79626B696520757374617769656E6960
:1059C0006100506F77726F742001002A2A2A2A2002
:1059D000424C4144202A2A2A2A004272616B206BE1
:1059E0006172747920534400576F6C6E6100447289
:1059F000756B6F77616E6965004472756B6F776167
:105A00006E69652E2E2E004E69650054616B004252
:105A100072616B0057796C005A616C00456E64537B
:105A2000746F703A25647000536574205A206F6655
:105A3000667365743A2554326D6D00536574205950
:105A4000206F66667365743A2554316D6D00536539
:105A5000742058206F66667365743A2554306D6DF6
:105A600000536574207072696E74206F666673658A
:105A70007473005679736B61207A2D746573743A70
:105A8000257A68002544332033204B6F7069690004
:105A90002544322032204B6F706969002544312043
:105AA00031204B6F70696500254430205A61646E67
:105AB00065204B6F70696500255835205A766F6CEC
:105AC000697420457874722E203600255834205A87
:105AD000766F6C697420457874722E2035002558D5
