:100000000C9455790C9486790C9486790C948679A5
:100010000C9486790C9486790C9486790C94867964
:100020000C9486790C9486790C9486790C94867954
:100030000C9486790C945AB70C9486790C94867932
:100040000C9486790C9423C00C9486790C94867950
:100050000C9486790D94C3590D94235A0D94694ECE
:100060000C9486790D9499590D9469590C9486795C
:100070000C9486790C9486790C9486790C94867904
:100080000C9486790C9486790C9486790C948679F4
:100090000C9486790C9486790C9486790C948679E4
:1000A0000C9486790C9486790C9486790C948679D4
:1000B0000C9486790C9486790C9486790C948679C4
:1000C0000C9486790C9486790C9486790C948679B4
:1000D0000C9486790C9486790C9486790C948679A4
:1000E0000C9486799E7DA37DA87DB47DC07D4D7ED8
:1000F000CC7DD47DDC7DE87DF47D007E117E1D7E8F
:100100004D7E297E357E417E87B99FB99FB99FB9C3
:100110009FB99FB99FB99FB99FB99FB99FB99FB91F
:100120009FB99FB99FB99FB99FB99FB99FB99FB90F
:100130009FB99FB99FB94EB958B93AB930B9E2B829
:10014000ECB85FB844B912B91CB962B96CB96FB8F0
:100150004DB876B908B99FB926B9FEB8F6B89FB9B7
:100160009FB99FB9C4B8CEB8D8B89FB99FB99FB945
:100170009FB99FB99FB94EB958B93AB930B9E2B8E9
:10018000ECB85FB844B912B91CB962B96CB96FB8B0
:100190004DB876B908B99FB926B9FEB8F6B89FB977
:1001A0009FB99FB9C4B8CEB8D8B8170115011D01C1
:1001B0002B010F011F01270137011B0135012F0101
:1001C0000D0123013B011F01290139011101084AD9
:1001D000D73B3BCE016E84BCBFFDC12F3D6C74315B
:1001E0009ABD56833DDA3D00C77F11BED9E4BB4CB2
:1001F0003E916BAAAABE000000803F05A84CCDB27C
:10020000D44EB93836A9020C50B9918688083CA65C
:10021000AAAA2ABE000000803F000D940E4D0D9446
:10022000EB4C0D94244D0D9458590D94F24C0D94B3
:10023000EF4C0D9438280D94004D0D94E14C0D9425
:10024000294D0D94A94C0D94124D0D9411280D9427
:10025000F64C0D941C4D0D94E54C0D94E3270D9434
:10026000084D0D941F280D94E35F0D94044D0D94DB
:10027000FA4C0D94204D0D94164D456E6420666920
:100280006C65206C69737400426567696E206669ED
:100290006C65206C697374005344207072696E74CD
:1002A000696E67206279746520004E6F7420534434
:1002B000207072696E74696E670057726974696E36
:1002C0006720746F2066696C653A20006F70656EF8
:1002D000206661696C65642C2046696C653A200073
:1002E0004372656174696F6E206661696C65640054
:1002F0004469726563746F727920637265617465B5
:100300006400504944204175746F74756E652066B1
:1003100061696C6564212074696D656F7574005046
:100320004944204175746F74756E65206661696C0F
:100330006564212054656D70657261747572652005
:10034000746F6F206869676800204B643A20002052
:100350004B693A2000204B703A200020436C6173B7
:1003600073696320504944002054753A2000204BA3
:10037000753A2000206D61783A2000206D696E3A50
:10038000200020643A200020626961733A20005006
:100390004944204175746F74756E65207374617281
:1003A00074004E6F2063617365206C6967687473B5
:1003B000004D617854656D703A004469616D6574F3
:1003C00065723A00416363656C65726174696F6E52
:1003D0003A004D617853706565643A004A65726B06
:1003E0003A004D617842656454656D703A00507210
:1003F000696E746572547970653A44656C74610015
:100400005A54726176656C416363656C3A00595465
:10041000726176656C416363656C3A005854726131
:1004200076656C416363656C3A005A5072696E740C
:10043000416363656C3A00595072696E744163633D
:10044000656C3A00585072696E74416363656C3A2A
:10045000005A53697A653A005953697A653A0058E7
:1004600053697A653A005A4D61783A00594D61787E
:100470003A00584D61783A005A4D696E3A00594D2C
:10048000696E3A00584D696E3A0052657472616344
:1004900074696F6E556E646F53706565643A00528F
:1004A000657472616374696F6E556E646F457874BC
:1004B00072614C6F6E674C656E6774683A00526586
:1004C0007472616374696F6E556E646F457874728F
:1004D000614C656E6774683A00526574726163744A
:1004E000696F6E5A4C6966743A0052657472616342
:1004F00074696F6E53706565643A00526574726119
:100500006374696F6E4C6F6E674C656E6774683AA2
:100510000052657472616374696F6E4C656E6774C6
:10052000683A004B656570416C697665496E746523
:100530007276616C3A004A65726B58593A00507293
:10054000696E746C696E6543616368653A00454520
:1005500050524F4D3A004175746F6C6576656C3A38
:10056000005A50726F62653A00436173654C696767
:100570006874733A00537570706F72744C6F636176
:100580006C46696C616D656E746368616E67653A2F
:1005900000537570706F72744731304731313A00D3
:1005A0005A486F6D654469723A0059486F6D6544E9
:1005B00069723A0058486F6D654469723A00536F2A
:1005C000667477617265506F77657253776974638B
:1005D000683A004C43443A0046616E323A30004675
:1005E000616E3A005344436172643A004865617435
:1005F00065644265643A004D6978696E6745787450
:1006000072756465723A004E756D457874727564E2
:1006100065723A00496E7075744275666665723A25
:100620000042617564726174653A00436F6E666979
:100630006775726174696F6E20726573657420747A
:100640006F2064656661756C74732E00696E666FE9
:100650003A436F6E74696E75652066726F6D2066C1
:100660006174616C20737461746500005465737407
:10067000696E6720666174616C206572726F7200CA
:1006800029203D20002C0042656E64696E67206160
:10069000742028004A616D20646562756767696E21
:1006A000673A00436F6E66696775726174696F6E51
:1006B000206C6F616465642066726F6D20454550E3
:1006C000524F4D2E00436F6E666967757261746993
:1006D0006F6E2073746F72656420746F204545508F
:1006E000524F4D2E00536574204D6963726F7374C1
:1006F000657070696E6700436F6C64206578747212
:100700007573696F6E20646973616C6C6F77656473
:1007100000436F6C6420657874727573696F6E2026
:10072000616C6C6F776564005472696767657269A4
:100730006E67207761746368646F672E2049662056
:100740006163746976617465642C207468652070D7
:1007500072696E7465722077696C6C20726573655E
:10076000742E005761746368646F672064697361F5
:10077000626C6564004D32353120006C696E6561D4
:1007800072204C3A002C2073706565643D00206C2B
:10079000696E6561722073746570733A004A6572A0
:1007A0006B3A0020746F200053657420766F6C756F
:1007B0006D657472696320657874727573696F6EA4
:1007C00020666F72206578747275646572200044CB
:1007D000697361626C656420766F6C756D657472A7
:1007E000696320657874727573696F6E20666F72C5
:1007F00020657874727564657220004D3131342043
:10080000004649524D574152455F4E414D453A527F
:10081000657065746965725F302E39322E392046F5
:1008200049524D574152455F55524C3A6874747065
:10083000733A2F2F6769746875622E636F6D2F721C
:10084000657065746965722F52657065746965724B
:100850002D4669726D776172652F2050524F544F4B
:10086000434F4C5F56455253494F4E3A312E30203C
:100870004D414348494E455F545950453A44656C93
:1008800074612045585452554445525F434F554E6C
:10089000543A312052455045544945525F50524FC9
:1008A000544F434F4C3A330050696E2063616E20C1
:1008B0006E6F7420626520736574206279204D34F8
:1008C000322C20697320696E2073656E73697469B8
:1008D00076652070696E73212000206973200049BD
:1008E0006C6C6567616C20532076616C7565206661
:1008F0006F72204D34320020746F200053657420D5
:100900006F75747075743A20000001363726030243
:100910003C3D380E0F2E303E12130D0C0A081A1CE7
:10092000180D0E35556E6B6E6F776E20636F6D6DA3
:10093000616E643A00496E76616C6964206172632D
:100940000047333220005A20616674657220726F4E
:10095000746174696F6E3A002061745A3A0043758D
:100960007272656E745A3A0050726F62696E6720D7
:100970006861642072657475726E65642065727258
:100980006F7273202D206175746F6C6576656C696C
:100990006E672063616E63656C65642E0058202865
:1009A000412920746F77657220666C6F6F722073B7
:1009B000657420746F3A2000592028422920746FF2
:1009C00077657220666C6F6F722073657420746F28
:1009D0003A20005A2028432920746F7765722066D8
:1009E0006C6F6F722073657420746F3A200047310A
:1009F00033342000506F7346726F6D53746570739B
:100A00003A002C00436F6D7044656C74613A00438A
:100A1000616C6962726174696F6E206D6F76656D6D
:100A2000656E74206973206C696D697465642074E7
:100A30006F2031306D6D2E004669727374206D6FBA
:100A4000766520746F20746F7563682061742078F8
:100A50002C793D302C3020746F206175746F2D73AC
:100A60006574207261646975732E0043616C6962FC
:100A7000726174696F6E206D6F76656D656E74203E
:100A80006973206C696D6974656420746F203130FE
:100A90006D6D2E0043616E6E6F74207365742072ED
:100AA000616469757320616E6420666C6F6F72207B
:100AB00061742073616D652074696D652E004361FA
:100AC0006C6962726174696F6E20636F646520691E
:100AD00073206C696D6974656420746F20626F7433
:100AE000746F6D20313025206F66205A206865694B
:100AF0006768740052656C617469766520706F7305
:100B00006974696F6E696E67004162736F6C7574AA
:100B10006520706F736974696F6E696E6700473323
:100B200032206C6576656C696E67206661696C65FC
:100B3000642100473239206C6576656C696E6720E8
:100B40006661696C65642100473239206C657665A1
:100B50006C696E67206661696C6564210047323993
:100B600020005265736574205A206865696768744F
:100B7000005A2D70726F62652061766572616765DB
:100B8000206865696768743A0032323920005A2D4E
:100B900070726F62652064697374616E63653A0098
:100BA0006578656375746547436F6465202F2071B0
:100BB0007565756544656C74614D6F766520726509
:100BC0007475726E73206572726F7200000000009F
:100BD0000000006200000000000000006100000052
:100BE00000000000006000000000000000005F0046
:100BF000000000000000008900000000000000006C
:100C000088000000000000000086000000000000D6
:100C100000008500E70BDE0BD50BCC0BF90BF00BBE
:100C20000B0C020C0355040400140C54F5726B00F9
:100C3000506F6C736B690043657374696E61005328
:100C400076656E736B610053756F6D6900497461F1
:100C50006C69616E6F004E656465726C616E647381
:100C600065004672616E6361697300506F727475DE
:100C70006775657300457370616E6F6C00446575D0
:100C80007473636800456E676C6973680003580489
:100C900002001C0C0320040200200C000003B00F13
:100CA0000000B900000003AF0F0000B8000000030F
:100CB000AE0F0000B700000003AD0F0000B600004B
:100CC0000003AC0F0000B400000002240C0000215F
:100CD00000000004260440009600000004220440A6
:100CE0000095000000044604000091000000044C40
:100CF000040000BB000000044D040000BC00000024
:100D0000042E04000090000000042A0400008F005C
:100D10000000042B0400008E000000042C040000DE
:100D20008D00000004290400008C0000000413045E
:100D300000005600000004160400005200000004E9
:100D40000E04000037000000040D0400003600000F
:100D500000040A04000032002B0C03AE2600000041
:100D600000300C03AD2600000000370C03AC260059
:100D70000000003F0C03AA2600000000470C03AF50
:100D800026000000004D0C03A82600000000560CB1
:100D900003A62600000000620C03AB260000000042
:100DA0006B0C03A72600000000750C03A9260000A9
:100DB00000007D0C03A52600000000850C03A4267E
:100DC00000000000000003B2040000D00000000298
:100DD0008D0C00008700000002940C0000840000CD
:100DE0000004100400008B007212B60CAD0CA40CB1
:100DF0009B0CDD10D410CB1072126411C80CBF0C08
:100E00007212220D190D100D070DFE0CF50CEC0CD5
:100E1000E30C1C1013100A100110F80FEF0FDA0C7E
:100E2000D10CE60F7212340D2B0D72124F0D460DC0
:100E30003D0D7212BB0DB20DA90DA00D970D8E0DBB
:100E4000850D7C0D730D6A0D610D580D7212DF0D4D
:100E5000D60DCD0DC40D0200000800E80D02000003
:100E60000400F80D0200001200000E020000030052
:100E7000240E02000004002A0E0200000D00320EB3
:100E800002000005004C0E000002560E0000BA00E1
:100E90000000025D0E0000B5000000030704000022
:100EA0003B00000003060400003A00000002640E4C
:100EB00000000F000000026B0E00004E0000000258
:100EC000720E00003900000002790E0000E40000FC
:100ED0000002800E00008A00000003820400000A65
:100EE00001000003810400003F00000003800400B3
:100EF000003E000000037F0400003D000000037E70
:100F00000400003C00000003B4040000D200000014
:100F1000031E04000083000000031D040000820083
:100F20000000031C04000081000000031B040000FB
:100F300080000000031A0408007F0000000452042F
:100F400000007E00000004B60F000009010000044C
:100F5000B50F00000801000004B40F0000070100F5
:100F6000000000000000F20000000000000000ABE4
:100F70000000000000000000700000000000000001
:100F8000006F00000003542402000300000003E887
:100F9000030000040000000100000000C9007212FC
:100FA000CF0EC60EBD0EB40EAB0E3713A20E990EA9
:100FB000900E870E7212FC0EF30EEA0EE10ED80EA2
:100FC00072123B0F320F290F200F170F0E0F050F54
:100FD0007212560F4D0F440F7A0F710F680F5F0F8B
:100FE000950F8C0F830F0000042F0400009B00005E
:100FF0000004260420009A00000004250420009923
:1010000000000004240420009800000004230420B1
:101010000097000000042204200094000000042D2A
:1010200004000093000200000B009E0F0200000667
:1010300000B40F0200000800C00F0200000400D03E
:101040000F03F0030400D80F0200000300E00F724A
:10105000121C1013100A100110F80FEF0FE60F000A
:101060000002251000000D000000022C10000011ED
:10107000000000027C140000100000000233100089
:10108000007D00000002441400000F000000023D3B
:101090001400000E000000024B1400000B000000C2
:1010A0000000000000CF0000000000000000CE00A3
:1010B00000000000000000CD000000000000000063
:1010C000CC000000023A1000000601000002671484
:1010D000000021000000026E1400001F000000024A
:1010E000751400001D00000003440400002E0000E1
:1010F00000024110000023000000033A0400002811
:1011000000000004620400002500000004610400E7
:1011100000240000000336040000C6000000034362
:101120000400101C00000003310400101B0000002C
:1011300003380400001A00000003470400001800F0
:1011400000000337040000170000000388130000AC
:10115000CB0000000448040000B1000000041F049C
:101160000000B000000003FD0300101300000000A9
:10117000000000006E00000000000000006D000094
:101180000000000000006C00000000000000006B88
:1011900000000000000000006A00000000000000E5
:1011A000006900000000000000006800000000006E
:1011B0000000006700000000000000006600000062
:1011C0000000000000650000000000000000640056
:1011D00000000000000000630000000000000000AC
:1011E000620000000000000000610000000000003C
:1011F00000006000000000000000005F0000000030
:10120000000000005E00000000000000005D000023
:101210000000000000005C00000000000000005B17
:1012200000000000000000005A0000000000000064
:1012300000590000000000000000580000000000FD
:101240000000005700000003F40301024D000000FD
:101250000248100200C900000003F70304004A001E
:10126000000003F60302044900000003F503010235
:101270004800000003E80300000A0000000000002E
:101280000000A80000000000000000A7000000000F
:1012900000000000A60000000000000000A5000201
:1012A000000008004F107212951069128C10831004
:1012B0007A10711068105F10B910B010A7109E104E
:1012C00072126411DD10D410CB10EF10C210721224
:1012D0000A110111F810EF10E610721264115B117F
:1012E00052114911401137112E1125111C111311E2
:1012F00088117F1176116D11AC11A3119A11911102
:10130000D011C711BE11B511F411EB11E211D911B1
:1013100018120F120612FD113C1233122A1221125A
:1013200072126912601257124E1245127212841212
:101330007B1296128D12000000029F120000A20084
:101340002F2F20616374696F6E3A726573756D65D6
:101350000044656C6574696F6E206661696C6564D4
:101360000046696C652064656C6574656400020004
:10137000000900A61252657175657374506175732A
:10138000653A00546F77657220333A00546F776581
:101390007220323A00546F77657220313A004C6502
:1013A00076656C696E672063616C633A0055495FCE
:1013B000414354494F4E5F5345545F4D454153554A
:1013C0005245445F4F524947494E200045455052CF
:1013D0004F4D2075706461746564005072696E745D
:1013E0006572206865696768743A000588130400AF
:1013F000B8122F2F20616374696F6E3A7061757334
:101400006500696D706F7274616E743A2046696C24
:10141000616D656E74206368616E676520726571C9
:10142000756972656421004A616D20636F6E747224
:101430006F6C2064697361626C65643A000200003D
:101440000700C0120200000600CE120200000B00CE
:10145000DA1203FC030400F01203FB030400F81289
:1014600003FA030400001303EF030400081303EE60
:10147000030400101303ED03040018130200000618
:1014800000201301000001002C1303102702002E7E
:10149000130310270200321355495F414354494F4B
:1014A0004E5F484F4D455F5A200055495F414354B8
:1014B000494F4E5F484F4D455F59200055495F41A8
:1014C0004354494F4E5F484F4D455F5820005549A2
:1014D0005F414354494F4E5F484F4D45414C4C206E
:1014E00000BB0DB20DA90DA00D970D8E0D850D7CC5
:1014F0000D730D6A0D610D580D536F66747761722F
:1015000065205265736574005761746368646F6722
:101510002052657365740042726F776E206F757428
:101520002052657365740045787465726E616C2035
:10153000526573657400506F7765725570000D0EBB
:10154000110A0411040A1111001C1F11111F0000BF
:10155000040A0A0A0E1F1F0E001F1111111F00009E
:10156000001F1F1F1F1F0000040A040000000000CE
:10157000040E150404041C007777772E6D696372DE
:101580006F6D616B652E6F7267004431005265703C
:10159000657469657220302E39322E3900467265C5
:1015A000652052414D3A008200000C00E1144E6566
:1015B000656473206C616E67756167652073656C27
:1015C000656374696F6E004D3131350A4D313139C3
:1015D0000A4732380A0A005072696E7465723A3AE4
:1015E000736574757020004175746F7265747261F3
:1015F00063743A007374617274004563686F3A00F3
:10160000446F6E65207072696E74696E67206669DA
:101610006C65005344206572726F7220666978654C
:1016200064005344206572726F7220646964206E96
:101630006F74207265636F76657221005344205287
:10164000656164204572726F720053442072656157
:1016500064206572726F72007761697400466F7200
:101660006D6174206572726F7200205200204A0012
:101670002049002050002053002046002045002033
:101680005A00205900205800205072696E7465720B
:101690002073746F7070656420616E64206865618A
:1016A000746572732064697361626C65642064752B
:1016B0006520746F2074686973206572726F722E72
:1016C00020466978206572726F7220616E642072A4
:1016D0006573746172742077697468204D39393983
:1016E0002E00666174616C3A006D6F766552656CB0
:1016F000617469766544697374616E6365496E539C
:1017000074657073202F20717565756544656C7400
:10171000614D6F76652072657475726E73206572A7
:10172000726F72000000420FA1071605D0030D036F
:101730008B022E02E801B2018601630145012C01F2
:1017400017010401F4000000000000000000000088
:1017500000000000000024F403D950C38EB1C2A2DF
:101760003D96828B3582127AE372816CCB66A861DA
:10177000015DC758EB546151204E1E4B5648C14580
:1017800059431A41013F093D2F3B7139CD3740364E
:10179000C93465331432D430A32F802E6B2D632CC3
:1017A000672B752A8E29B028DC2710274B268F251A
:1017B000D9242B248223E0224322AC211A218D201C
:1017C0000420801F001F841E0C1E971D261DB81CA0
:1017D0004E1CE61B821B201BC11A641A0A1AB2197E
:1017E0005D190A19B9186A181C18D11788174017FB
:1017F000FA16B51673163116F115B31576153A1596
:101800000015C7148F1458142214EE13BA1388133A
:1018100056132513F612C71299126C1240121512A4
:10182000EB11C1119811701148112111FB10D61044
:10183000B1108D106910461024100210E10FC00F76
:10184000A00F800F610F420F230F060FE80ECB0E83
:10185000AF0E930E770E5C0E410E270E0D0EF30D9C
:10186000DA0DC10DA80D900D780D600D490D320DEA
:101870001B0D050DEF0CD90CC30CAE0C990C850C8F
:10188000700C5C0C480C350C210C0E0CFB0BE80B9F
:10189000D60BC40BB20BA00B8E0B7D0B6B0B5A0B34
:1018A0004A0B390B290B180B080BF80AE90AD90A5D
:1018B000CA0ABB0AAC0A9D0A8E0A800A710A630A28
:1018C000550A470A390A2C0A1E0A110A040AF7099E
:1018D000EA09DD09D009C409B709AB099F099209D2
:1018E00087097B096F09630958094C0941093609C1
:1018F0002B09200915090A090009F508EB08E00879
:10190000D608CC08C208B808AE08A4089A089008FF
:1019100087087D0874086B08610858084F08460856
:101920003D0834082C0823081A0812080908010881
:10193000F807F007E807E007D807D007C807C0078F
:10194000B807B007A807A107424C4B200050726FA0
:10195000746F636F6C2076657273696F6E20636855
:10196000616E6765642C20757067726164696E676B
:10197000005472616E73666F726D6174696F6E2070
:101980006D61747269783A00616476616E63652096
:101990004C205B303D6F66665D00657874727564DF
:1019A000657220636F6F6C6572207370656564206B
:1019B0005B302D3235355D0064697374616E63652B
:1019C00020746F2072657472616374207768656E2D
:1019D0002068656174696E67205B6D6D5D0074657C
:1019E0006D702E20666F7220726574726163746907
:1019F0006F6E207768656E2068656174696E672018
:101A00005B435D0074656D702E2073746162696C58
:101A1000697A652074696D65205B735D005A2D6F6E
:101A20006666736574205B73746570735D00592D11
:101A30006F6666736574205B73746570735D0058C0
:101A40002D6F6666736574205B73746570735D00DB
:101A5000504944206D61782076616C7565205B305B
:101A60002D3235355D0050494420442D6761696E43
:101A70000050494420492D6761696E005049442057
:101A8000502D6761696E2F646561642D74696D65A1
:101A900000504944206472697665206D696E00507B
:101AA0004944206472697665206D617800686561DB
:101AB00074206D616E61676572205B302D335D004F
:101AC000616363656C65726174696F6E205B6D6DD7
:101AD0002F735E325D007374617274206665656495
:101AE00072617465205B6D6D2F735D006D61782E82
:101AF000206665656472617465205B6D6D2F735D32
:101B000000737465707320706572206D6D0052658E
:101B10007472616374696F6E20756E646F20737088
:101B200065656400457874726120657874727573B8
:101B3000696F6E206F6E20756E646F2072657472AF
:101B4000616374205B6D6D5D0052657472616374D6
:101B5000696F6E207A2D6C696674205B6D6D5D0017
:101B600052657472616374696F6E20737065656429
:101B7000205B6D6D2F735D005265747261637469D3
:101B80006F6E206C656E677468205B6D6D5D0045DF
:101B90006E61626C652072657472616374696F6EE8
:101BA00020636F6E76657273696F6E205B302F31C4
:101BB0005D0042656420504944206D617820766163
:101BC0006C7565205B302D3235355D0042656420D3
:101BD00050494420442D6761696E0042656420507D
:101BE000494420492D6761696E004265642050496F
:101BF0004420502D6761696E00426564205049445D
:101C0000206472697665206D696E004265642050BB
:101C10004944206472697665206D6178004265648C
:101C20002048656174204D616E61676572205B308C
:101C30002D335D004175746F6C6576656C20616352
:101C4000746976652028312F3029005A2D70726F03
:101C500062652062656E64696E6720636F7272658B
:101C60006374696F6E2043205B6D6D5D005A2D704B
:101C7000726F62652062656E64696E6720636F7261
:101C800072656374696F6E2042205B6D6D5D005AF2
:101C90002D70726F62652062656E64696E67206385
:101CA0006F7272656374696F6E2041205B6D6D5D4C
:101CB000005A2D70726F6265205933205B6D6D5D27
:101CC000005A2D70726F6265205833205B6D6D5D18
:101CD000005A2D70726F6265205932205B6D6D5D08
:101CE000005A2D70726F6265205832205B6D6D5DF9
:101CF000005A2D70726F6265205931205B6D6D5DE9
:101D0000005A2D70726F6265205831205B6D6D5DD9
:101D1000005A2D70726F6265206F6666736574205D
:101D200079205B6D6D5D005A2D70726F6265206F5A
:101D300066667365742078205B6D6D5D005A2D704A
:101D4000726F626520782D792D7370656564205BF4
:101D50006D6D2F735D005A2D70726F626520737008
:101D6000656564205B6D6D2F735D004D61782E207D
:101D70007A2D70726F6265202D206265642064691F
:101D800073742E205B6D6D5D005A2D70726F6265ED
:101D900020686569676874205B6D6D5D00436F61E5
:101DA00074696E6720746869636B6E657373205B1A
:101DB0006D6D5D00436F72722E20646961676F6E96
:101DC000616C2043205B6D6D5D00436F72722E204D
:101DD000646961676F6E616C2042205B6D6D5D00B0
:101DE000436F72722E20646961676F6E616C20416F
:101DF000205B6D6D5D0044656C74612052616469A7
:101E0000757320432830293A0044656C7461205270
:101E1000616469757320422830293A0044656C7406
:101E2000612052616469757320412830293A00416C
:101E30006C7068612043283930293A00416C706821
:101E400061204228333330293A00416C70686120A8
:101E50004128323130293A00546F776572205A2078
:101E6000656E6473746F70206F6666736574205B53
:101E700073746570735D00546F77657220592065C7
:101E80006E6473746F70206F6666736574205B7325
:101E9000746570735D00546F776572205820656EAD
:101EA0006473746F70206F6666736574205B7374FF
:101EB0006570735D004D6178207072696E74616247
:101EC0006C6520726164697573205B6D6D5D00489F
:101ED0006F72697A6F6E74616C20726F64207261C8
:101EE0006469757320617420302C30205B6D6D5DEA
:101EF00000446961676F6E616C20726F64206C656D
:101F00006E677468205B6D6D5D0054726176656C00
:101F100020616363656C65726174696F6E205B6DCF
:101F20006D2F735E325D00416363656C6572617431
:101F3000696F6E205B6D6D2F735E325D0053656758
:101F40006D656E74732F7320666F72207072696E88
:101F500074696E67005365676D656E74732F7320C7
:101F6000666F722074726176656C005A206D6178BC
:101F7000206C656E677468205B6D6D5D0059206D27
:101F80006178206C656E677468205B6D6D5D0058CC
:101F9000206D6178206C656E677468205B6D6D5D87
:101FA000005A206D696E20706F73205B6D6D5D004F
:101FB00059206D696E20706F73205B6D6D5D0058E8
:101FC000206D696E20706F73205B6D6D5D004D61DB
:101FD000782E206A65726B205B6D6D2F735D0048F3
:101FE0006F6D696E67206665656472617465205BFC
:101FF0006D6D2F735D004D61782E2066656564728E
:10200000617465205B6D6D2F735D00537465707333
:1020100020706572206D6D0053746F70207374654D
:102020007070657220616674657220696E61637498
:102030006976697479205B6D732C303D6F66665DDF
:10204000004D61782E20696E616374697665207435
:10205000696D65205B6D732C303D6F66665D005069
:1020600072696E74657220616374697665205B7352
:102070005D0046696C616D656E74207072696E7486
:102080006564205B6D5D004C616E6775616765001E
:10209000426175647261746500457874722E004502
:1020A00050523A3320004550523A322000455052A7
:1020B0003A3120004550523A3020006973506F7316
:1020C0006974696F6E416C6C6F77656420007C3C4D
:1020D0003E5E2B3D3F2F5B5D3B2C2A225C00206344
:1020E000203D20002062203D2000706C616E653A2A
:1020F0002061203D20004175746F6C6576656C69C8
:102100006E672064697361626C6564004175746F09
:102110006C6576656C696E6720656E61626C65647E
:10212000004175746F6C6576656C206D61747269C1
:102130007820726573657400526F6420526164691F
:1021400075732073657420746F3A2000446973615D
:10215000626C696E6720616C6C2068656174657281
:10216000732064756520746F20646574656374659D
:10217000642073656E736F72206465666563742E88
:1021800000206465672E204300206D6561737572C1
:10219000656420004572726F723A436F756C6420FB
:1021A0006E6F7420686F6C642074656D7065726109
:1021B000747572652000206D73002061667465720D
:1021C00020004572726F723A54656D702E207261F4
:1021D0006973656420746F20736C6F772E20526969
:1021E0007365203D20004F6E6520686561746572DF
:1021F000207365656D73206465636F75706C6564CD
:102200002066726F6D20746865726D6973746F7289
:10221000202D2064697361626C696E6720616C6C4B
:1022200020666F722073616665747921004865616C
:10223000746572206465636F75706C6564004865D1
:1022400061746564206265642065786365656465B2
:1022500064206D61782074656D706572617475724B
:1022600065210020453A00205A3A00583A002040A3
:102270003A002042403A00205241570020423A00A2
:10228000202F00543A0053706565644D756C746975
:10229000706C793A00466C6F774D756C7469706C30
:1022A000793A0046616E73706565643A00206D6925
:1022B0006E0020686F75727320002064617973204E
:1022C000005072696E74696E672074696D653A00BA
:1022D0006D20005072696E7465642066696C616D72
:1022E000656E743A008025000040380000004B0005
:1022F000008070000000960000C0DA000000E100DD
:1023000000002C010008B2010000C2010000F4012D
:10231000000084030090D0030000E80300000807D9
:102320000020A1070000100E0040420F0060E316DD
:10233000000000000055495F414354494F4E5F453E
:10234000504F534954494F4E200055495F41435423
:10235000494F4E5F5A504F534954494F4E5F464183
:102360005354200055495F414354494F4E5F5950E3
:102370004F534954494F4E5F4641535420005549ED
:102380005F414354494F4E5F58504F534954494F52
:102390004E5F46415354200055495F414354494FD5
:1023A0004E5F5A504F534954494F4E200055495F94
:1023B000414354494F4E5F59504F534954494F4E32
:1023C000200055495F414354494F4E5F58504F5389
:1023D0004954494F4E200020002F00627573793A0E
:1023E00070726F63657373696E6700627573793AB3
:1023F00068656174696E6700627573793A706175BA
:1024000073656420666F72207573657220696E74DF
:102410006572616374696F6E00526573656E643ACC
:10242000006F6B200020676F7420004572726F721E
:102430003A6578706563746564206C696E65200028
:10244000736B697020006F6B00004D313137204590
:1024500078747275646572203100206465632000B1
:10246000206465662000030004004320686974202E
:10247000666C6F6F720043706F7320782073717594
:10248000617265200043706F7320782073746570EB
:1024900073200043706F73207920737175617265CA
:1024A000200043706F73207920737465707320006F
:1024B000422068697420666C6F6F720042706F739F
:1024C000207820737175617265200042706F7320EF
:1024D00078207374657073200042706F73207920C8
:1024E000737175617265200042706F73207920737B
:1024F000746570732000412068697420666C6F6F8A
:10250000720041706F73207820737175617265205D
:102510000041706F732078207374657073200041E0
:10252000706F73207920737175617265200041703E
:102530006F73207920737465707320005761726E19
:10254000696E673A00207A3A0020793A0020783A9A
:1025500000496E76616C69642064656C7461206307
:102560006F6F7264696E617465202D206D6F766582
:102570002069676E6F726564004E6F206D6F7665BF
:1025800020696E2064656C7461207365676D656E8B
:10259000742077697468203E2031207365676D650B
:1025A0006E742E20546869732073686F756C642094
:1025B0006E657665722068617070656E20616E640C
:1025C000206D617920636175736520612070726F81
:1025D000626C656D2100696E207175657565446575
:1025E0006C74614D6F766520746F2063616C6375E8
:1025F0006C61746544656C74615375625365676D95
:10260000656E74732072657475726E732065727274
:102610006F722E006572726F722077726974696EC4
:102620006720746F2066696C6500504944204175CD
:10263000746F74756E652066696E69736865642071
:102640002120506C61636520746865204B702C20DC
:102650004B6920616E64204B6420636F6E737461FC
:102660006E747320696E2074686520436F6E6669AE
:102670006775726174696F6E2E68206F72204545B0
:1026800050524F4D00446F6E6520736176696E67DE
:102690002066696C652E00436F6E6669673A005369
:1026A0004420696E6974206661696C0046696C65D6
:1026B0002073656C6563746564002053697A653ABC
:1026C0000046696C65206F70656E65643A006669E6
:1026D0006C652E6F70656E206661696C6564005A6A
:1026E0002D70726F62652073746174653A007A5F51
:1026F0006D61783A004C2000482000795F6D617868
:102700003A00785F6D61783A00656E6473746F703B
:1027100073206869743A200044656275674C657679
:10272000656C3A005072696E7465724D6F64653AFB
:10273000434E43005072696E7465724D6F64653A22
:102740004C61736572005072696E7465724D6F648E
:10275000653A464646006D6F7665546F5265616C0A
:10276000202F20717565756544656C74614D6F76B9
:10277000652072657475726E73206572726F720077
:102780005344206361726420696E7365727465647A
:1027900000534420636172642072656D6F766564D6
:1027A000005265717565737450617573653A486F51
:1027B0006D696E67206661696C65642100686F6D84
:1027C0006541786973200000000000000000F100FE
:1027D00000000000000000C4000000000000000035
:1027E000F00000000000000000C300000000000036
:1027F0000000F30000000000000000F400000000F2
:1028000000000000AF0000000000000000AC00006D
:10281000000000000000F300000000000000005F66
:1028200000000000000000005B000000000000004D
:1028300000570000000000000000F300000000004E
:10284000000000EE0000000000000000ED000000AD
:102850000000000000EB00E227D927D027C7270699
:1028600028FD27F427EB272A28212818280F284E8F
:102870002845283C28332800000004005728000081
:102880000004005F28000000040067280000000426
:10289000006F2857726F6E6720636865636B73758E
:1028A0006D008C2885287E2877280400501D7C0028
:1028B000D009A4001009CC008008F40010081C0105
:1028C000B807440168076C0128079401E806BC01B9
:1028D000B806E40188060C026006340238065C0281
:1028E00018068402F005AC02D805D402B805FC0233
:1028F00098052403800574035005C40328051404B7
:1029000000056404D804B404B0042C058004A405B4
:1029100058041C062804940600040C07D803AC07CE
:10292000A8034C087803EC0848038C092003A40A88
:10293000D0021C0BA802AC0C2802FC0C0802C40D2F
:10294000B801140E9801B40E38012C0FE000540F9A
:10295000B8007C0F8800A40F4800F40F28FFFC0F7C
:10296000C0F9000000008C030800AE035000D6033D
:10297000A000F703F0001804400138049001590446
:10298000E0017A0430029A048002BB04D002FC0405
:1029900070032605C003860630079709A00F750D42
:1029A000201C520E401F1F0F6022FF0F803E0400AC
:1029B000081D900058091C01B007A801C806340280
:1029C0003006C002C0054C036805D803180564042E
:1029D000D004F00498047C056004080630049406D2
:1029E00000042007D003AC07A80338088003C408FC
:1029F000580350093003DC090803680AD802F40AB6
:102A0000B002800B88020C0C6002980C3002240D7E
:102A1000F801B00DC0013C0E8001C80E3001540F0A
:102A2000B800B40F2800E00F00000400401D900023
:102A300060091C01B007A801D00634023806C002A4
:102A4000C8054C036805D80318056404D804F004CD
:102A500098047C05600408063004940600042007EE
:102A6000D003AC07A80338088003C40858035009F2
:102A70003003DC090803680AE002F40AB802800B9C
:102A800088020C0C6002980C3002240DF801B00D85
:102A9000C0013C0E8001C80E3001540FB800B40FC5
:102AA0002800E00F000004000016D800C006AC01AA
:102AB00078058002C004540348042804E803FC0499
:102AC0009803D0055003A40618037807D8024C08D1
:102AD000A80220097002F4093802C80A08029C0BF7
:102AE000D001700C9001440D5001180EF800EC0E4E
:102AF0008800C00F00000400681D4C00500B9400BB
:102B00005809DC0050082401A8076C012807B4010B
:102B1000C006FC017006440228068C02F005D402AF
:102B2000B8051C03880564035805AC033005F4039D
:102B300010053C04E8048404C804CC04A80414056B
:102B400090045C057004A4055804EC0538043406B0
:102B500020047C060804C406F0030C07D8035407BD
:102B6000C8039C07B003E40798032C08800374088B
:102B70007003BC085803040948034C093003940946
:102B80001803DC090803240AF0026C0AE002B40A04
:102B9000C802FC0AB002440BA0028C0B8802D40BC2
:102BA00070021C0C5802640C4002AC0C2802F40C9D
:102BB00010023C0DF001840DD801CC0DB801140EAB
:102BC00098015C0E7001A40E4801EC0E1801340F40
:102BD000D8007C0F8800C40F0800FC0F0000000024
:102BE00000000000000000000000000000000000E5
:102BF00000000000000000000000000000000000D5
:102C000000000000401F450060094F0010095C00F3
:102C1000C0086B0070087D0020089200D007AC004F
:102C20008007CC003007DE00E006230190065E013D
:102C30004006A601F005FF01A0056D025005F30254
:102C400000059603B0045A046004400510044806C9
:102C5000C0036E077003A8082003EB09D002230B02
:102C60008002410C3002390DE001040E9001A20EE9
:102C70004001170FF000690FA000A20F5000C60F0F
:102C80000000DD0FB0FFEB0F60FF0400001B5400DD
:102C90006009640010097400C008840070089C007A
:102CA0002008B800D007D8008007000130072C01A9
:102CB000E00668019006AC0140060002F0056802DB
:102CC000A005E0025005740300052404B004F004DC
:102CD0006004DC051004E406C00304087003300936
:102CE0002003780B8002600DE001A80E4001680F00
:102CF000A000C00F0000E80F60FF0400700DD800B6
:102D00004804AC0158038002D8025403800228040E
:102D10003802FC040002D005C801A4069801780717
:102D200070014C08480120091801F409F000C80A94
:102D3000C8009C0BA000700C7000440D3800180EE9
:102D40000000EC0EA8FFC00FE8FE0400001B5400BA
:102D50006009640010097400C008840070089C00B9
:102D60002008B800D007D8008007000130072C01E8
:102D7000E00668019006AC0140060002F00568021A
:102D8000A005E0025005740300052404B004F0041B
:102D90006004DC051004E406C00304087003300975
:102DA0002003780B8002600DE001A80E4001680F3F
:102DB000A000C00F0000E80F60FF0400801AD800D8
:102DC0009808AC012007800250065403C805280467
:102DD0005805FC040005D005B004A4066804780773
:102DE00028044C08E8032009B003F4097003C80A5A
:102DF00038039C0BF802700CB002440D6802180EE8
:102E00000802EC0E8801C00F8800F00F00000000DF
:102E1000A00F5C006009690010097900C0088C00EF
:102E20007008A2002008BD00D007DE008007050161
:102E300030073401E0066D019006B201400607023A
:102E4000F0056D02A005E80250057B0300052B0488
:102E5000B004F8046004EB06C003350920037F0BBF
:102E60008002650DE001B00E40011D0FF000480F1B
:102E7000C8006C0FA000ED0F60FFFE0F48FE536509
:102E80006C65637445787472756465723A003A00D3
:102E90005461726765744578747200546172676535
:102EA000744265643A000E2EBA2D4A2DFA2C8A2CF3
:102EB00000000000022CF62AA62A2A2AAE2962293E
:102EC000AA281C151C141C00002243141F1F132EBB
:102ED0005072696E7465722073657420696E746FC8
:102EE000206472792072756E206D6F646520756E36
:102EF00074696C20726573746172742100206D6155
:102F0000726B6564206465636F75706C6564002026
:102F10006D61726B656420646566656374003A2058
:102F2000776F726B696E67003A2074656D702073FD
:102F3000656E736F7220646566656374004F7468B4
:102F400065723A00686561746564206265640000BA
:102F500000003FCDCC4C3D0AD7A33B6F12033A0093
:102F6000002110422063308440A550C660E77008FD
:102F70008129914AA16BB18CC1ADD1CEE1EFF13184
:102F800012100273325222B5529442F772D662394D
:102F90009318837BB35AA3BDD39CC3FFF3DEE362D4
:102FA00024433420040114E664C774A44485546A9D
:102FB000A54BB528850995EEE5CFF5ACC58DD55364
:102FC00036722611163006D776F6669556B4465BED
:102FD000B77AA719973887DFF7FEE79DD7BCC7C434
:102FE00048E5588668A7784008611802282338CC3D
:102FF000C9EDD98EE9AFF9488969990AA92BB9F5C4
:103000005AD44AB77A966A711A500A333A122AFD8C
:10301000DBDCCBBFFB9EEB799B588B3BBB1AABA693
:103020006C877CE44CC55C222C033C600C411CAEDC
:10303000ED8FFDECCDCDDD2AAD0BBD688D499D97A3
:103040007EB66ED55EF44E133E322E511E700E9F2C
:10305000FFBEEFDDDFFCCF1BBF3AAF599F788F88F3
:1030600091A981CAB1EBA10CD12DC14EF16FE180C4
:1030700010A100C230E3200450254046706760B9BB
:10308000839893FBA3DAB33DC31CD37FE35EF3B114
:10309000029012F322D2323542145277625672EA0B
:1030A000B5CBA5A89589856EF54FE52CD50DC5E264
:1030B00034C324A01481046674476424540544DB9B
:1030C000A7FAB79987B8975FE77EF71DC73CD7D3B4
:1030D00026F2369106B01657667676154634564C6B
:1030E000D96DC90EF92FE9C899E9898AB9ABA94404
:1030F00058654806782768C018E1088238A3287DFB
:10310000CB5CDB3FEB1EFBF98BD89BBBAB9ABB7553
:103110004A545A376A167AF10AD01AB32A923A2ECA
:10312000FD0FED6CDD4DCDAABD8BADE89DC98D26A3
:103130007C076C645C454CA23C832CE01CC10C1FDA
:10314000EF3EFF5DCF7CDF9BAFBABFD98FF89F17F3
:103150006E367E554E745E932EB23ED10EF01E003A
:10316000401454456E6453746F7020203A25647087
:10317000004173657461205A20706F696B6B6561E3
:103180006D613A2554326D6D00417365746120594B
:1031900020706F696B6B65616D613A2554316D6D9F
:1031A000004173657461205820706F696B6B6561B5
:1031B0006D613A2554306D6D004173657461207402
:1031C000756C6F7374696D656E20706F696B6B657C
:1031D000616D6174005A2D616E747572696E206B39
:1031E0006F726B6575733A257A6800254433203316
:1031F000206B6F70696F7461002544322032206B40
:103200006F70696F7461002544312031206B6F70DD
:10321000696F00254430204569206B6F70696F74B9
:1032200061002558352056616C697473652070758E
:1032300072732E2036002558342056616C697473E1
:103240006520707572732E20350025583320566125
:103250006C6974736520707572732E20340050751C
:1032600072736F74696E20362065690050757273D1
:103270006F74696E203520656900507572736F74C4
:10328000696E2034206569004CE16D70EF203620B6
:103290003A2565352F2545350243004CE16D70EF29
:1032A0002035203A2565342F2545340243004CE172
:1032B0006D70EF2034203A2565332F2545330243C6
:1032C00000202542436D6D0005256563020005253C
:1032D00065632F254563020000256F730025556641
:1032E000206D2054756C6F7374657474750025556A
:1032F00066206D0025557400583A25783020593ADB
:10330000257831004D756C3A20256F6D20202045C1
:103310003A257834005A3A257832202042756620C2
:103320003A20256F4200422565422F254562020062
:10333000052565632F25456302422565422F2545F6
:10334000620200256F73004275663A20256F4200C5
:103350004D756C3A20256F6D25252520FD202020F8
:10336000453A202578346D00566972746175733A58
:10337000FD20256F662525252020205A3A25783204
:10338000000E202565622F254562B020593A257828
:1033900031000A202565302F254530B020583A25C8
:1033A0007830004B69656C69004D756B61757465AB
:1033B0007474753A2542436D6D004D756B6175747B
:1033C00065747475004C69696D617075696B6B6FBC
:1033D000005669687265C3A420504554207465691D
:1033E0007070690053696E696E656E2070617065FA
:1033F000726920746569707069004B6170746F6EDA
:10340000004275696C6454616B0045692070696E97
:103410006E6F74657474610000416C757374616ED5
:103420002070696E74612076616C697474750041F6
:103430006C757374616E2070696E6E6F7465005682
:10344000616C6D69696E6100507572736F74746937
:103450006D656E2074756B6F73006CE16D70EF7449
:10346000696C61742E2E2E004F646F74746161203C
:103470007461766F69746574746100707572736FCE
:103480007474696D6574004B6C696B207575736934
:10349000206B75756D656E6E7573004F686974612C
:1034A000204D3130362025466900536572766F20F5
:1034B0007061696B6B613A20256F53004175746FC1
:1034C0006D2E7461736F3A20256C6C004B6C696BC8
:1034D000206B756E2076616C6D69730054756C2E6F
:1034E0006C616E6B6120796CEF732F616C6173009E
:1034F0005079EF726974E1207369697272E1005664
:1035000061696864612074756C6F737475736C6144
:103510006E6B61005661696864612074756C6F73CD
:103520007475736C616E6B61005A206D696B726F9C
:1035300061736B656C6C75733A256F596D6D004CDA
:103540006F706574612074756C6F7374757300535C
:103550006C6F7742616E67004A6F75746F61696B5B
:1035600061004154582076697274616C2E206F6E30
:103570002F65690054756C6F737465747475004CB5
:10358000616E6B612074756C6F7374657474750013
:1035900054756C6F7374757361696B6100003A00E8
:1035A0002070E16976E1E1200054756C6F737469F5
:1035B0006E2076616C6D69732E005344206B6F72C0
:1035C000747469206F6E005344206B6F7274746959
:1035D00020706F6973004F646F7474616120796B40
:1035E000732E3A255855206D6D004F646F747461C9
:1035F00061206CE16D6D2E2025585402430054610A
:10360000736F2064656C7461004C61736B6520742A
:1036100061736F74004173657461205033004173AE
:10362000657461205032004173657461205031002F
:103630005A206B616C6962726F696E7469004173C4
:10364000657461205A3D3000506F69737461206D5C
:10365000697461742E004EE17974E1206D697461C2
:103660007400507568616C6C75736B6572726F690C
:103670006E3A256F66252525004E6F706575736B54
:103680006572726F696E3A256F6D2525250020429F
:103690003A2565622F25456202437E256F6200450B
:1036A000333A2565322F25453202437E256F32009D
:1036B00045323A2565312F25453102437E256F314C
:1036C0000045313A2565302F25453002437E256F70
:1036D000300020453A2565632F25456302437E254A
:1036E0006F43005075736B7572693A256F42004CD9
:1036F0006164617461616E2E2E2E004C6164617490
:10370000747520454550524F4D004B6F6B6F6F6E77
:1037100070616E6F0054616C6C656E6E657474756B
:1037200020454550524F4D004B6F6B6F6F6E70616F
:103730006E6F004D6F6F74746F726920706F697374
:10374000206BE179742E00506F6973746574747521
:10375000004B75756D656E74616120416C75737495
:103760006161004B75756D656E7461612050757295
:10377000736F742E00546F696D696E74613A256CB5
:1037800061005049440042616E6742616E670059B2
:103790002D7461736F697475733A25587900582DCB
:1037A0007461736F697475733A2558780050494491
:1037B000204D61783A25584400416A6F204D617868
:1037C0003A25584D00416A6F204D696E3A25586D73
:1037D0000050494420443A25586400504944204947
:1037E0003A2558690056616C766F6E7461205057A7
:1037F0004D3A25584D004B756F6C6C75742061699E
:103800006B613A2558700050494420503A25587051
:103810000048616C6C696E74613A255868004574A3
:10382000656E656D696E656E20717561643A2558C7
:1038300061004574656E656D696E656E206C696EBC
:103840003A25586C00537461622E41696B613A25C8
:103850005877004B69696864797479733A255841DF
:10386000004D616B732E2046523A255846004BE1BD
:10387000796E6E697374E146523A25586600417359
:103880006B656C74612F4D4D3A2553650053696922
:1038900072746F6E6F706575733A256F6300596C43
:1038A0006569736574005B6D696E5D20303D7361A1
:1038B0006D6D75746100546F696D65746F6E206A0B
:1038C000E16C6B65656E3A20256970004D616B7324
:1038D0002E20746F696D65746F6E005B6D696E5D2F
:1038E00020303D73616D6D75746100546F696D6555
:1038F000746F6E206AE16C6B65656E3A20256973A2
:10390000004D6F6F74746F726920746F696D6574A8
:103910006F6E004173657461206E6F702E206D6153
:103920006B732E004173657461206E6F702E2037AB
:1039300035252525004173657461206E6F702E203A
:103940003530252525004173657461206E6F702E1A
:103950002032352525250053616D6D757461207405
:1039600075756C6574696E005475756C6574696EF7
:10397000206E6F706575733A2546732525250054B2
:1039800075756C657474696D656E206E6F706575A4
:1039900073004D696E3A25737A204D61783A25732C
:1039A0005A005A3A257832206D6D004D696E3A25DD
:1039B0007379204D61783A25735900593A25783149
:1039C000206D6D004D696E3A257378204D61783A0F
:1039D00025735800583A257830206D6D004D696E7A
:1039E0003A25737A204D61783A25735A005A3A2560
:1039F0007832206D6D004D696E3A257379204D61E6
:103A0000783A25735900593A257831206D6D004D6B
:103A1000696E3A257378204D61783A2573580058BD
:103A20003A257830206D6D0031206B6C696B6B61CD
:103A30007573203D2031206D6D00453A2578332087
:103A40006D6D00004D616B732072616A6F697474F3
:103A5000696D657374613A25735A004D696E2E2045
:103A600072616A6F697474696D657374613A257304
:103A70007A005A3A257832206D6D00004D616B73E3
:103A80002072616A6F697474696D657374613A2537
:103A90007359004D696E2E2072616A6F6974746982
:103AA0006D657374613A25737900593A2578312030
:103AB0006D6D00004D616B732072616A6F69747483
:103AC000696D657374613A257358004D696E2E20D7
:103AD00072616A6F697474696D657374613A257394
:103AE0007800583A257830206D6D00004D616B7379
:103AF0002072616A6F697474696D657374613A25C7
:103B0000735A004D696E2E2072616A6F6974746910
:103B10006D657374613A25737A005A3A25783220BC
:103B20006D6D2025647A25645A00004D616B732009
:103B300072616A6F697474696D657374613A257333
:103B400059004D696E2E2072616A6F697474696DD7
:103B5000657374613A25737900593A257831206D7F
:103B60006D2025647925645900004D616B732072C6
:103B7000616A6F697474696D657374613A2573580D
:103B8000004D696E2E2072616A6F697474696D658B
:103B90007374613A25737800583A257830206D6D3A
:103BA00020256478256458004B6F74693A25665A5D
:103BB000004B6F7469205A3A25665A004B6F74693E
:103BC00020593A256659004B6F746920583A25668A
:103BD00058004D616B732E3A25667A004D616B7308
:103BE0002E205A3A25667A004D616B732E20593A81
:103BF000256679004D616B732E20583A2566780052
:103C00005379EF7474EF6E6F7065757300506F6960
:103C100073746120746965646F73746F004B6F72A5
:103C2000747469206173657465747475004B6F7288
:103C300074746920706F69737465747475004A6177
:103C4000746B612074756C6F737475737461005458
:103C5000756C6F737475737461756B6F0054756CEC
:103C60006F73746120546965646F73746F00567567
:103C70006F646F6E20706F6973746F00536969723F
:103C800072E16AE16C6B65656E3A254F61004D69C2
:103C90006E2E6469737420203A254F64004261637C
:103CA0006B736C2E2020203A254F62005065727590
:103CB0007574612020203A254F7200254F32204F25
:103CC0005053206E6F70656100254F31204F505367
:103CD000206E6F726D61616C6900254F30204F500E
:103CE00053206569004B756976612D616A6F3A25CD
:103CF0006464005669726865657420203A256465BD
:103D000000546965646F742020203A25646900546A
:103D10006F697374612020203A25646F004C6174D0
:103D2000616120202020454550524F4D0054616C68
:103D30006C656E6E6120454550524F4D004B696970
:103D400068747976797973005A2D41736B656C20AC
:103D50003A25614A0041736B656C2020203A256149
:103D60006A005369697272E13A25615A00536969C0
:103D70007272E15A203A25615A005369697272E100
:103D800059203A256159005369697272E158203A05
:103D90002561580054756C6F7374613A25617A001F
:103DA00054756C6F737461205A3A25617A005475AA
:103DB0006C6F73746120593A2561790054756C6F8A
:103DC00073746120583A25617800417365746120ED
:103DD0006CE16874EF706973746500255832205681
:103DE000616C6974736520707572732E3300255889
:103DF000312056616C6974736520707572732E3250
:103E0000002558302056616C697473652070757296
:103E1000732E3100507572736F74696E20332045B4
:103E20006900507572736F74696E203220456900A5
:103E3000507572736F74696E20312045690050753A
:103E400072736F2033203A2565322F2545320243A5
:103E500000507572736F2032203A2565312F254549
:103E600031024300507572736F2031203A2565305E
:103E70002F254530024300416C757374616E203A02
:103E80002565622F254562024300507572736F7479
:103E90002E207061696B6B61005A205061696B6BF9
:103EA00061206E6F706561005A205061696B6B61B3
:103EB0000059205061696B6B61206E6F7065610005
:103EC00059205061696B6B610058205061696B6BC0
:103ED00061206E6F7065610058205061696B6B6185
:103EE0000053616D6D757461206D6F6F74746F72C6
:103EF00069004173657461206CE16874EF706973E7
:103F00007465004AE1E16864797479730056616C04
:103F10006F743A256C6F004573696CC3A46D6D694D
:103F200074797320414253004573696CC3A46D6D6D
:103F30006974797320504C41004B6F7469205A00AA
:103F40004B6F74692059004B6F74692058004B6F98
:103F50007469206B61696B6B69004B6F74692064D5
:103F6000656C7461005669726865656E6574736925
:103F70006E74E1005344206B6F7274746900507565
:103F800072736F74696E005061696B6B61004B6F87
:103F90006B6F6F6E70616E6F00256F650050696B9F
:103FA000612D61736574756B7365740054616B6129
:103FB0006973696E01002A2A2A2A20564952484507
:103FC000202A2A2A2A004569205344206B6F7274E4
:103FD0007469610056616C6D69730054756C6F7320
:103FE00074610054756C6F737461612E2E2E0045E0
:103FF00069004B796C6CE1004E2F410053616D6D8F
:104000007574610050E1E16C6C6500456E64537439
:104010006F70203A25647000536574205A206F66D3
:10402000667365743A2554326D6D0053657420597A
:10403000206F66667365743A2554316D6D00536563
:10404000742058206F66667365743A2554306D6D20
:1040500000536574207072696E74206F66667365B4
:104060007473005A2D70726F622079756B73656B73
:104070006C6967693A257A68002544332033206BE0
:104080006F707961002544322032206B6F70796146
:10409000002544312031206B6F7079610025443058
:1040A000204B6F7079616C616D610025583520453A
:1040B00078742E2036E28099796920736563200038
:1040C000255834204578742E2035E2809969207374
:1040D00065632000255833204578742E2034E28013
:1040E0009975207365632000204578742E2036E290
:1040F00080997969206B6170617420002045787423
:104100002E2035E2809969206B6170617420004532
:1041100078742E2034E2809975206B617061740090
:104120005369632E2036203A20254535024300533B
:1041300069632E2035203A20254534024300536917
:10414000632E2034203A2025453302430020256F7A
:10415000436D6D00052565630200052565632F2508
:104160004563020000256F7300255566206D207998
:10417000617A696C646900255566206D0025557467
:1041800000583A25783020593A257831004D756C21
:104190003A20256F6D202020453A257834005A3A80
:1041A0002578322020427566203A20256F42004251
:1041B0002565422F2545620200052565632F2545AB
:1041C0006302422565422F2545620200256F730078
:1041D0004275663A20256F42004D756C3A20256F76
:1041E0006D25252520FD202020453A202578346D99
:1041F0000050727A65703AFD20256F6625252520CE
:10420000205A3A257832000E202565622F25456216
:10421000B020593A257831000A202565302F2545F0
:1042200030B020583A2578300044696C0044696702
:104230006572203A20256F436D6D00446967657291
:104240000059617069736B616E00596573696C2008
:104250005045542054617065004D61766920426F6D
:104260007961204B6167696469004B6170746F6E9E
:10427000004275696C6454616B004B61706C616DD8
:104280006120596F6B00004B61706C616D61204B58
:10429000616C696E6C696769005461626C6120755C
:1042A000737475206B61706C616D610042656B6C3D
:1042B000656D65204D6F6475004578747275646531
:1042C000722074616B696C6469006963696E206255
:1042D000656B6C6579696E004973746E696C656EA7
:1042E00020736963616B6C696B6C617200697369DF
:1042F000746D616B206963696E2074696B6C6179A0
:10430000696E0045787472756465726C61726920BB
:1043100074656B726172004D313036596920617479
:104320006C612025466900536572766F20706F734B
:104330002E3A20256F53004F746F2073657669798C
:10434000653A20256C6C0054616D616D6C616E6422
:104350006967696E6461206275746F6E6120626165
:1043600073696E00616C6D616B206963696E2063B7
:1043700065766972696E0046696C616D6574692065
:1043800079756B6172692061736167690046696C58
:10439000616D656E74206465676973746972004647
:1043A000696C616D656E74206465676973746972A8
:1043B000005A2042616279737465702E3A256F59F4
:1043C0006D6D0059617A6469726D617969206475F7
:1043D0007264757200536C6F7742616E6700426F52
:1043E000737461205A616D616E0041545820677585
:1043F0006375206F6E2F6F66660079617A696C64F1
:10440000690046696C616D656E74206861726361F4
:104410006E64690059617A6469726D61205A616DD8
:10442000616E6900003A002067756E200059617A5C
:104430006963692048617A6972005344204361725C
:10444000642054616B696C64690053442043617259
:10445000642043696B6172696C64690042656B6CCE
:10446000653A20255855206D6D0042656B6C6520BE
:104470005369632E2025585402430044656C7461CF
:104480007969207365766979656C6500536576692D
:104490006579692048657361706C610053657420AB
:1044A00050330053657420503200536574205031EE
:1044B000005A204B616C69622E005A3D3027612002
:1044C000617961726C61004F6C63756D7520536921
:1044D0006669726C61004F6C63756D7520476F7310
:1044E00074657200416B697320436172702E203ACB
:1044F000256F662525250048697A20436172702E54
:104500003A256F6D2525250020423A2565622F2525
:10451000456202437E256F620045333A2565322F9E
:1045200025453202437E256F320045323A256531FA
:104530002F25453102437E256F310045313A2565EF
:10454000302F25453002437E256F300020453A2527
:1045500065632F25456302437E256F43004F6E62DE
:10456000656C6C656B3A256F420059756B6C75799B
:104570006F722E2E2E00454550524F4D2764616EAE
:104580002063616772696C6469004B6F6E6669676E
:1045900075726173796F6E00454550524F4D2761BA
:1045A000206B6179646564696C6469004B6F6E6649
:1045B000696775726173796F6E004D6F746F726C9D
:1045C0006172204B6170616C690044555244550022
:1045D000426564204973696E69796F720045787429
:1045E0007275646572204973696E69796F720045EE
:1045F000796C656D3A256C61005049440042616EEA
:104600006742616E6700592D4F667365743A25588D
:104610007900582D4F667365743A255878005049D3
:1046200044204D61783A255844005375727563757E
:10463000204D61783A25584D005375727563752089
:104640004D696E3A25586D0050494420443A25582A
:10465000640050494420493A255869004B6F6E74F4
:10466000726F6C2050574D3A25584D00426F7320A1
:104670005A616D6E3A2558700050494420503A25D1
:104680005870004B6F6E74726F6C3A255868004713
:10469000656C69736D697320717561643A25586141
:1046A0000047656C69736D6973206C696E3A2558B3
:1046B0006C00537461622E54696D653A2558770019
:1046C00049766D653A255841004D61782046523A49
:1046D000255846004261736C616E676963204652DB
:1046E0003A255866004164696D2F4D4D3A25536552
:1046F0000042617564726174653A256F63004765B5
:104700006E656C005B6D696E5D20303D4B61706164
:104710006C69004B6170616D61207375722E3A2077
:10472000256970004D61782E20426F737461005BC3
:104730006D696E5D20303D4F6666004D6F746F721F
:10474000204B6170613A20256973004D6F746F7260
:104750006C617220426F7374610046616E20546117
:104760006D204163696B0046616E27692041796164
:10477000726C612037352525250046616E2769203A
:10478000417961726C612035302525250046616EC6
:10479000276920417961726C612032352525250019
:1047A00046616E2769204B617061740046616E201E
:1047B00048697A693A2546732525250046616E20A9
:1047C00048697A69004D696E3A25737A204D61789F
:1047D0003A25735A005A3A257832206D6D004D699A
:1047E0006E3A257379204D61783A25735900593A0C
:1047F000257831206D6D004D696E3A257378204D16
:1048000061783A25735800583A257830206D6D004C
:104810004D696E3A25737A204D61783A25735A00B6
:104820005A3A257832206D6D004D696E3A257379BC
:10483000204D61783A25735900593A257831206D19
:104840006D004D696E3A257378204D61783A257375
:104850005800583A257830206D6D00312074696B0E
:10486000203D2031206D6D00453A257833206D6D57
:1048700000004D617820656E6473746F703A257323
:104880005A004D696E20656E6473746F703A2573BB
:104890007A005A3A257832206D6D00004D617820FB
:1048A000656E6473746F703A257359004D696E209C
:1048B000656E6473746F703A25737900593A257880
:1048C00031206D6D00004D617820656E6473746FEA
:1048D000703A257358004D696E20656E6473746F6D
:1048E000703A25737800583A257830206D6D0000B5
:1048F0004D617820656E6473746F703A25735A0049
:104900004D696E20656E6473746F703A25737A001A
:104910005A3A257832206D6D2025647A25645A0034
:10492000004D617820656E6473746F703A25735919
:10493000004D696E20656E6473746F703A257379EB
:1049400000593A257831206D6D2025647925645908
:1049500000004D617820656E6473746F703A257342
:1049600058004D696E20656E6473746F703A2573DC
:104970007800583A257830206D6D202564782564BC
:10498000580044656C7461205369662E476F6E2E23
:1049900048697A3A25665A005A2769205369662E73
:1049A000476F6E2E48697A3A25665A005927796909
:1049B000205369662E476F6E2E48697A2E3A256617
:1049C0005900582769205369662E476F6E2E486933
:1049D0007A2E3A256658004D61783A25667A004D60
:1049E0006178205A3A25667A004D617820593A2537
:1049F0006679004D617820583A25667800496C65E3
:104A0000726C656D6500446F7379617969205369D3
:104A10006C004B61727469204261676C61004B618C
:104A20007274692043696B6172004261736B6979CA
:104A30006120446576616D004261736B697969201C
:104A4000447572616B6C617400446F7379612059B5
:104A5000617A64697200416E7469204F6F7A6500F3
:104A60004D6F76652061667465723A254F61004D21
:104A7000696E2E204D65736166653A254F64004569
:104A80006B73656E20426F736C2E3A254F62004740
:104A90006572692043656B6C2E3A254F7200254F75
:104AA00032204F50532048697A6C6900254F3120DD
:104AB0004F5053204B6C6173696B00254F30204F72
:104AC0005053204B6170616C6900426F73746120B8
:104AD00043616C69733A25646400486174616C6178
:104AE00072203A2564650042696C67692020203A8B
:104AF000256469004563686F202020203A25646F93
:104B000000454550524F4D2764616E2063616769CF
:104B10007200454550524F4D2761206B61796465A5
:104B2000740049766D65005A2D4A65726B203A25EE
:104B3000614A00582D59204A65726B203A25616AF6
:104B400000486172656B6574203A25615A004861BE
:104B500072656B6574205A203A25615A004861726B
:104B6000656B65742059203A25615900486172656A
:104B70006B65742058203A2561580059617A6D613F
:104B800020482E3A25617A0059617A6D6120482EBD
:104B9000205A3A25617A0059617A6D6120482E20A9
:104BA000593A2561790059617A6D6120482E205863
:104BB0003A256178004F726967696E2069204179F2
:104BC00061726C610025583220457874722E203352
:104BD0002775205365630025583120457874722E5F
:104BE00020322779692053656300255830204578A5
:104BF00074722E20312769205365630045787472E2
:104C00002E20332769204B61706100457874722E25
:104C100020322769204B61706100457874722E2024
:104C2000312769204B617061005369632E20332066
:104C30003A202545320243005369632E2032203A40
:104C4000202545310243005369632E2031203A204C
:104C50002545300243005461626C61205369633A18
:104C600020254562024300486172656B65746900E6
:104C70005A2048697A6C6920486172656B6574696D
:104C8000005A20486172656B657469005920486953
:104C90007A6C6920486172656B65746900592048B7
:104CA0006172656B65746900582048697A6C692087
:104CB000486172656B657469005820486172656B64
:104CC000657469004D6F746F7275204B617061740B
:104CD000004F72696A696E6520617961726C61006A
:104CE000536F67756D61004973696B6C6172203A2F
:104CF000256C6F00414253204F6E20497369746DDB
:104D00006100504C41204F6E20497369746D610001
:104D10005A20532E476F6E646572005920532E47F8
:104D20006F6E646572005820532E476F6E64657213
:104D30000048657073696E6920532E476F6E646515
:104D4000720044656C7461796920536966722E2023
:104D5000476F6E642E00446562756767696E670011
:104D60005344204B617274004578747275646572A7
:104D7000004B6F6E756D2D486172656B65740059DF
:104D80006170696C616E6469726D6100256F6500A8
:104D900048697A6C692041796172004765726920BF
:104DA00001002A2A2A2A2048415441202A2A2A2A54
:104DB000005344204B61727420596F6B00426F7333
:104DC00074610059617A69796F720059617A697901
:104DD0006F722E2E2E0048617969720045766574D7
:104DE000004E2F41004B6170616C69004163696B3B
:104DF00000456E6453746F7020202020203A2025D7
:104E000064700050727A6573756E2077205A203A6C
:104E10002554326D6D0050727A6573756E2077205F
:104E200059203A202554316D6D0050727A657375A2
:104E30006E20772058203A202554306D6D00506F39
:104E40006C6F7A656E69652077796472756B750031
:104E50005779732E20536F6E6479205A3A257A68F9
:104E6000002544332033204B6F70696500254432A0
:104E70002032204B6F706965002544312031204B72
:104E80006F70696100254430204E6965206B6F703A
:104E900069756A00255835205779626965727A20EC
:104EA000457874722E20360025583420577962696F
:104EB00065727A20457874722E203500255833208B
:104EC0005779626965727A20457874722E203400B1
:104ED00057796C2E2045787472756465722036009F
:104EE00057796C2E20457874727564657220350090
:104EF00057796C2E20457874727564657220340081
:104F000054656D702E4578363A2565352F25453523
:104F100002430054656D702E4578353A2565342F6F
:104F200025453402430054656D702E4578343A258A
:104F300065332F254533024300202542436D6D0024
:104F4000052565630200052565632F25456302007D
:104F500000256F7300255566206D206472756B6F98
:104F600077616E6500255566206D002555740058E3
:104F70003A25783020593A257831004D756C3A2021
:104F8000256F6D202020453A257834005A3A25783F
:104F9000322020427566203A20256F420042256566
:104FA000422F2545620200052565632F25456302D2
:104FB000422565422F2545620200256F7300427528
:104FC000663A20256F42004D756C3A20256F6D259D
:104FD000252520FD202020453A202578346D0050DD
:104FE000727A65703AFD20256F6625252520205AA6
:104FF0003A257832000E202565622F254562B020C3
:10500000593A257831000A202565302F254530B0E2
:1050100020583A257830004A657A796B00496E6EDF
:105020006120677275626F73633A2542436D6D004C
:10503000496E6E61004B6C656A207720737A7479D3
:1050400066636965005A69656C6F6E61207461738F
:105050006D6120504554004E6965622E2074617365
:105060006D61206D61736B2E004B6170746F6E000B
:105070004275696C6454616B00437A79737479206A
:1050800073746F6C0073746F6C753A005779626952
:1050900065727A206D6174657269616C00506F6B26
:1050A00072796369652073746F6C75005374616EF7
:1050B00064627900456B73747275646572207A61FD
:1050C000626C6F6B6F77616E790074656D7065727D
:1050D0006174757279202E2E2E00506F637A656B85
:1050E000616A206E61207A6164616E6500726F7A18
:1050F00067727A616320656B737472756465727927
:10510000004B6C696B6E696A20616279207A6EC3AC
:10511000B3770049676E6F72756A206B6F6D2E20D2
:105120004D3130362025466900506F7A79636A61C7
:105130002053657277613A20256F53004175746F73
:10514000706F7A696F6D6F772E3A20256C6C004B0B
:105150006C696B6E696A206A616B20676F746F7728
:10516000650066696C616D656E74207720676F728B
:10517000652F646F6C004B726563206162792070EB
:10518000727A657375776163005A6D69656E206622
:10519000696C616D656E74005A6D69616E6120663F
:1051A000696C616D656E747500446F726567756CCE
:1051B000756A205A3A256F596D6D0050727A657282
:1051C00077696A2077796472756B00536C6F7742E8
:1051D000616E6700446561642054696D6500576CB9
:1051E0002F57796C207A6173696C616E6965006410
:1051F00072756B6F77616E65005A757A79746F207E
:1052000066696C616D656E747500437A61732070B8
:10521000726163790020682E003A0020646E692C68
:1052200020004472756B61726B6120676F746F77D9
:1052300061004B6172746120534420776C6F7A6F08
:105240006E61004B617274612053442077796A6506
:10525000746100577973757720726F7A67727A6517
:10526000773A2558556D6D004D696E54656D702007
:105270007779737577753A255854024300506F7AE1
:10528000696F6D2064656C7479004F626C69637A34
:1052900020706F7A696F6D6F77616E696100557309
:1052A0007461772050330055737461772050320059
:1052B0005573746177205031005A206B616C6962BC
:1052C0002E005573746177205A3D30005A6572750F
:1052D0006A20706F6D69617200506F6B617A207027
:1052E0006F6D6961720050727A65706C79772066B3
:1052F000696C616D2E3A256F6625252500537A79F4
:10530000626B6F7363206472756B75203A256F6DE5
:105310002525250020423A2565622F254562024356
:105320007E256F620045333A2565322F25453202CE
:10533000437E256F320045323A2565312F254531B0
:1053400002437E256F310045313A2565302F2545D2
:105350003002437E256F300020453A2565632F25B6
:10536000456302437E256F43004275666F723A259E
:105370006F42004C61646F77616E69652E2E2E005E
:105380006F64637A7974616E61207A20454550526A
:105390004F4D004B6F6E666967757261636A61009D
:1053A0007A61706973616E6120646F204545505267
:1053B0004F4D004B6F6E666967757261636A61007D
:1053C00053696C6E696B692077796C61637A6F6E73
:1053D00065005A6174727A796D616E790047727AEC
:1053E000616E69652073746F6C750047727A616EC7
:1053F000696520676C6F7769637900416B636A61E7
:105400003A256C6100504944004477757374616EAD
:105410006F7779004F66736574205920203A2558BC
:1054200079004F66736574205820203A255878001B
:105430004D617820737465722E3A20255844004DD2
:1054400061782049207761723A2025584D004D69D6
:105450006E2049207761723A2025586D00504944EA
:105460002044202020203A255864005049442049F7
:10547000202020203A255869004D61782E20505771
:105480004D203A255844004465616474696D652077
:105490003A255870005049442050202020203A25B9
:1054A000587000526567756C61746F723A25586860
:1054B00000416476616E63652071756164203A25F0
:1054C000586100416476616E6365206C696E2020CE
:1054D0003A25586C00437A61732073746162696C79
:1054E0002E203A255877730050727A797370696567
:1054F000737A2E20203A255841004D617820537A46
:1055000079626B6F7363203A25584600506F637A57
:1055100061746B6F776120535A3A255866004B725D
:105520006F6B692F6D6D203A2025536500537A7992
:10553000626B6F7363205553423A256F6300557356
:1055400074617769656E696120676C6F776E65005D
:10555000303D4E69652077796C61637A616A0057E6
:10556000796C61637A20706F3A20256970206D69CB
:105570006E2E0057796C61637A207A6173696C2EA4
:1055800020706F00303D4E69652077796C61637AD9
:10559000616A0057796C61637A20706F3A202569DF
:1055A00073206D696E2E0057796C61637A20736980
:1055B0006C6E696B6920706F005573746177206E33
:1055C0006120313030252525005573746177206EB8
:1055D00061203735252525005573746177206E616C
:1055E000203530252525005573746177206E6120A4
:1055F00032352525250057796C61637A20776961FA
:105600007472616B004F62726F7479207769617494
:1056100072616B613A254673252525004F62726FD2
:105620007479207769617472616B61004D696E3ABB
:1056300025737A204D61783A25735A005A3A2578B5
:1056400032206D6D004D696E3A257379204D617879
:105650003A25735900593A257831206D6D004D690E
:105660006E3A257378204D61783A25735800583A80
:10567000257830206D6D004D696E3A25737A204D86
:1056800061783A25735A005A3A257832206D6D00B8
:105690004D696E3A257379204D61783A257359002A
:1056A000593A257831206D6D004D696E3A25737831
:1056B000204D61783A25735800583A257830206D8E
:1056C0006D004A65646E6F73746B612031206D6D7F
:1056D00000453A257833206D6D00004B72616E6392
:1056E0006F776B61204D41583A2025735A004B72F9
:1056F000616E636F776B61204D494E3A2025737A56
:10570000005A3A257832206D6D00004B72616E634D
:105710006F776B61204D41583A20257359004B72C9
:10572000616E636F776B61204D494E3A2025737926
:1057300000593A257831206D6D00004B72616E631F
:105740006F776B61204D41583A20257358004B729A
:10575000616E636F776B61204D494E3A20257378F7
:1057600000583A257830206D6D00004B72616E63F1
:105770006F776B61204D61783A2025735A004B7228
:10578000616E636F776B61204D494E3A2025737AC5
:10579000005A3A257832206D6D2025647A25645AA6
:1057A00000004B72616E636F776B61204D61783AD8
:1057B00020257359004B72616E636F776B61204DCA
:1057C000494E3A2025737900593A257831206D6D7C
:1057D0002025647925645900004B72616E636F77F0
:1057E0006B61204D41583A20257358004B72616E11
:1057F000636F776B61204D494E3A202573780058CE
:105800003A257830206D6D20256478256458005045
:105810006F77726F743A25665A00506F77726F74A3
:10582000205A3A25665A00506F77726F7420593AA1
:1058300025665900506F77726F7420583A25665864
:10584000004D61783A25667A004D6178205A3A25F4
:10585000667A004D617820593A256679004D617865
:1058600020583A25667800537A79626B6F7363002B
:105870005573756E20706C696B005A616D6F6E7434
:10588000756A206B61727465004F646D6F6E74751C
:105890006A206B6172746500577A6E6F772064724C
:1058A000756B6F772E00577374727A796D616A2009
:1058B0006472756B004472756B756A207A20706C27
:1058C000696B7500416E7469204F6F7A6500507284
:1058D0007A6573756E20706F3A254F61004D696E61
:1058E0002E646973743A254F64004261636B736C74
:1058F0002E203A254F620052657472616374203A1B
:10590000254F7200254F32204F505320466173744B
:1059100000254F31204F505320436C6173736963EE
:1059200000254F30204F5053204F66660042657A65
:105930002077796472756B75203A20256464004283
:105940006C656479202020202020203A2025646581
:1059500000496E666F726D61636A6520203A20258A
:105960006469004563686F20202020202020203AB1
:105970002025646F004F64637A7974207A2045454E
:1059800050524F4D005A617069737A20646F204500
:105990004550524F4D0050727A7973706965737A31
:1059A000656E6965005A2D4A65726B3A25614A0039
:1059B0004A65726B3A25616A0050727A6573757731
:1059C000616E6961203A25615A0050727A6573757B
:1059D000772E205A20203A25615A0050727A65733A
:1059E00075772E205920203A2561590050727A652A
:1059F0007375772E205820203A256158004472751F
:105A00006B6F77616E696120203A25617A0044727C
:105A1000756B6F772E205A2020203A25617A00443A
:105A200072756B6F772E20592020203A25617900FE
:105A30004472756B6F772E20582020203A256178AC
:105A4000005573746177206A616B6F207A65726F9D
:105A500000255831205779626965727A204578743B
:105A6000722E203300255831205779626965727A89
:105A700020457874722E20320025583020577962E4
:105A80006965727A20457874722E20310057796CDE
:105A90002E20457874727564657220330057796CD6
:105AA0002E20457874727564657220320057796CC7
:105AB0002E20457874727564657220310054656DCE
:105AC000702E4578333A2565322F25453202430042
:105AD00054656D702E4578323A2565312F25453154
